:1006BA0008290A0A0A0A0A0A0A0A08210000000086
:1006CA000000000008450000000000000000033898
:0706DA00235955C102C18143
:10074700E53D453C703A753C00753D011205DF8F6C
:100757003EE53B653EFF553EF533E53EF45FF54428
:10076700853E3BE53324EF6012146009147011A233
:1007770000B3920022A202B3920222A201B3920115
:01078700224F
:1003C900E532453160030204BC75310075320130F4
:1003D900001B20020CE4F537F536F53575344080FD
:1003E9000C854237854136854035853F34200033B9
:1003F90075290C752A0A752B0A752C0A752D0AAFF1
:1004090042AE41AD40AC3F12026BEF75F00A8485F4
:10041900F02EE4FFFE7DC87C42AB42AA41A940A868
:100429003F803175290D752A0A752B0A752C0A75B5
:100439002D0AAF37AE36AD35AC3412026BEF75F01D
:100449000A8485F02EE4FFFE7DC87C42AB37AA36CC
:10045900A935A83412000E12026BAB07AA067C005C
:100469007D0A1203667C007D0A1203668D2F7C00CB
:100479007D0AAF03AE021203668D307526017F41F6
:100489001208AEAC07E4120237E4FBFA794C784261
:100499001201178F428E418D408C3FE4FFFE7D4C47
:1004A9007C42AB37AA36A935A83412000E12026B6A
:0404B9001209FE2204
:10065200E4FFA200E433B507047E0180027E007449
:10066200452FF8A6060FBF02E9E4FFFE7DC07C3FDE
:10067200AB42AA41A940A83F1201B44028E4FFFEC0
:100682007D207C40AB42AA41A940A83F1201B44060
:1006920019E4FFFE7D607C40AB42AA41A940A83F1D
:1006A2001201B45005E4F5478003754701200204A6
:0706B20075480122E4F54840
:0106B900221E
:03000B000204BD2F
:1004BD00C0E0C0F0C083C082C0D075D000C000C005
:1004CD0001C002C003C004C005C006C007053DE55C
:1004DD003D7002053C640A453C7004F53CF53D0554
:1004ED0032E53270020531646445317004F531F541
:1004FD00320543E543B408037543003001147429F4
:10050D002543F8E6FD7C0074212543F8E6FB7A00CF
:10051D008006E4FBFA7D0AFCAF4312070274452501
:10052D0043F8E6FD7C00AF43120788D007D006D014
:10053D0005D004D003D002D001D000D0D0D082D0CD
:06054D0083D0F0D0E03283
:1009E900538E7F5389F0758A18758CFCC28DD28C11
:0509F900D2A9D2AF22DB
:1009690012094C1209E97B007A00793812082C1215
:0A09790003C912074712065280F569
:04098300D2A07F057A
:10098700000000000000000000000000000000AEB2
:06099700071FEE70EB22C9
:0F0A3A00D2A1120983C2A17F05120987C2A0228F
:0C0A4900C2A1120983D2A17F0502098717
:02085B00AD07E7
:10085D00E4FCC2A07F05120987ED30E704D2A18028
:10086D0002C2A17F05120987D2A0ED25E0FD7F050B
:09087D001209870CBC08DBC2A0C3
:01088600224F
:10091200E4FC120983ED25E0FD30A103430501C289
:0C092200A07F051209870CBC08E8AF0597
:01092E0022A6
:0B092F0012085B12093AAF0312085BCC
:10093A00120983A2A1E433FDC2A07F05120987AF81
:01094A0005A7
:01094B002289
:1009D100C2A0EF24FF92A17F05120987120983C2E9
:0809E100A0D2A17F05020987E5
:0208AE00AB0796
:1008B000120A3A7F9012092F120A3A7F9112085BAE
:1008C00012093A120912AD077F011209D1120A4921
:0208D000AF0572
:0108D2002203
:1009FE00AB07120A3A7F9012085B12093A7F411236
:050A0E00092F020A4956
:100A2700E4FEC297EF1392A3EFC313FFD2970EBE54
:020A370008F0C5
:010A3900229A
:100A1300C29300C29700D29300120A27AF05120AAD
:040A230027C2932231
:1007F800E4FDC29300C29700D29300120A27E4FFD7
:10080800C297EDC313FD30A303430580D2970FBFF2
:1008180008EEC29300C29700D29700C2A300D2A3E9
:0308280000AF0519
:01082B0022AA
:10082C00E4FD7F8E120A131202ECFD7F84120A1370
:10083C00900001120305FD7F82120A139000021230
:0F084C000305FD7F80120A137D807F8E020A1341
:1008D3007F851207F8EF1203327F831207F8900027
:1008E30001EF1203447F811207F8900002EF020325
:0108F30044C0
:10094C007580FFE5A0541F4480F5A053A01FE4F56B
:0D095C0080E5A0541F44A0F5A053A01F2269
:1005DF00E4FFC2C4D2C2D2B5D2B420B3027F04208A
:1005EF00B2027F0520B1027F0620B0027F07D2C47E
:1005FF00C2C2D2B5D2B420B3027F0820B2027F09A3
:10060F0020B1027F0A20B0027F0BD2C4D2C2C2B582
:10061F00D2B420B3027F0C20B2027F0D20B1027F33
:10062F000E20B0027F0FD2C4D2C2D2B5C2B420B353
:10063F00027F1020B2027F1120B1027F1220B00280
:02064F007F1317
:010651002286
:0606E100011E00011FFFD5
:10078800ED4C600F7401A807088002C333D8FC42FF
:100798001E800E7401A807088002C333D8FCF452E7
:1007A8001EE51E651F6013E51EF4F580E5A0541FC5
:0A07B8004480F5A053A01F851E1F0A
:0107C2002214
:04099D007F057E0054
:1009A100EF1FAA0670011E4A600BE4FDEDC3940C13
:0509B10050EE0D80F77F
:0109B600221E
:0208F400A90752
:1008F600E4FBC294E913929412099DD294E9C313BE
:0C090600F90BBB08ED7F057E000209A183
:1009B700E4FBC294ECC313FCD29430940343048049
:0909C70012099D0BBB08EBAF0403
:0109D0002204
:10088700C203D2947F0C7E001209A1C2947F507ECE
:10089700001209A1D2947F0A7E001209A1A29492A4
:0608A7000312099DA203EB
:0108AD002228
:1007C3001208877FCC1208F47F441208F4120887BA
:1007D3007FCC1208F47FBE1208F41209B7A90712DE
:1007E30009B7EFAD01FCE4120232E4FBFA79807839
:0407F3004112011797
:0107F70022DF
:1006E7000E08C0F9A4B0999282F88090FFBFC18E1E
:0A06F70008160102040810204080DC
:100702007580FFE5A0541F44E0F5A053A01F7416A6
:100712002FF8E6F580E5A0541F44C0F5A053A01FB2
:1007220074082DF8E6F580E5A0541F44E0F5A053C7
:10073200A01FEB4A600353807FE5A0541F44E0F5FD
:05074200A053A01F22DE
:10000E00EC4D6011E8497017ED33EC3304600DE4EC
:10001E00FCFFFEFD22E933E8330470F80202D7122A
:10002E0002A258046009E4CC24815006285009022B
:10003E0002E12840030202DEC0E0EB4A7044B980C0
:10004E0006D0E0FB0202CDEF4E701CBD8008EBFF28
:10005E00EAFEE9FD80EBE98DF0A4FEE5F00200F783
:10006E00E9CDF9EAFEEBFFEF89F0A4FCE5F0CE89CD
:10007E00F0A42EFFE435F0CD89F0A42DFEE435F08A
:10008E008067EF4E7005BD80D780C3EF8BF0A4ACB8
:10009E00F0EE8BF0A42CFCE435F0F8EF8AF0A42CF3
:1000AE00E5F038FCE433CB8DF0A42CFCE5F03BF806
:1000BE00EE8AF0A42CFCE5F038F8E433CF89F0A4F6
:1000CE002CFCE5F038CF3400CE89F0A42FFFE5F0FC
:1000DE003EFEE433C98DF0A42EFEE5F039CD8AF054
:1000EE00A42FFFE5F03EFEE43DFD33D0E0FB5007CC
:1000FE000BBB000F0202E1EC2CFCEF33FFEE33FEE4
:06010E00ED33FD0202B911
:100114000202E1EC5D046005E8590470030202D7B1
:100124001202A2580460F6EC4860F2EC7004FDFE82
:10013400FF22C860DB2481C85009C39860025006BE
:100144000202DE9850CAF582E9294B4A7005AB8257
:100154000202CD75F0007C1A7880C3EF9BEE9AED15
:1001640099400DC3EF9BFFEE9AFEED99FDE842F036
:10017400DC23ACF0D0E0FFD0E0FED0E0FDAB822089
:10018400E7101BEB60BAEC2CFCEF33FFEE33FEED13
:1001940033FD0202B9E803F830E705C0F075F0005A
:1001A400EF2FFFEE33FEED33FD40B830E7C280AAF7
:1001B40074F8CC6480CCC86480C8F58204604FC3F2
:1001C400EB9FF5F0EA9E42F0E99D42F0E89C45F091
:1001D400603C501DE5825FFFE582D313CB5BCBF41B
:1001E4002B5582FB50280ABA002409B90020088044
:1001F4001DE5825BFBE582D313CF5FCFF4C3132FDE
:100204005582FF50090EBE00050DBD00010CC3EB65
:100214009FF5F0EA9E42F0E99D42F0E89C45F060CB
:0902240007CC4820E701B3EC22ED
:10022D0075F020800E75F010800575F0087D007E4C
:10023D00007F003392D530D5031203BBEC33401051
:10024D00EF33FFEE33FEED33FDEC33FCD5F0ED2255
:0E025D00E5F0247EA2D513CC92E7CDCEFF2291
:10026B00EDD2E7CD33EC3392D524814006E4FFFE8B
:10027B00FDFC22FCE4CFCECDCC24E0501174FF80EA
:10028B00EDC3CC13CCCD13CDCE13CECF13CF047087
:07029B00F030D5DE0203BBC9
:1002A200E9D2E7C933E833F892D5EDD2E7CD33ECA2
:0702B20033FC5002B2D5221B
:1002B900EC30E7100FBF000C0EBE00080DBD0004A6
:1002C9000BEB6014A2D5EB13FCED92E7FD2274FF52
:1002D900FCFDFEFF22E480F8A2D574FF13FC7D80AB
:0302E900E480EFBF
:03000000020553A3
:0C055300787FE4F6D8FD75814C02059A13
:1002EC00BB010689828A83E0225002E722BBFE0210
:0902FC00E32289828A83E4932243
:10030500BB010CE58229F582E5833AF583E02250AD
:1003150006E92582F8E622BBFE06E92582F8E222F7
:0D032500E58229F582E5833AF583E4932211
:10033200BB010689828A83F0225002F722BBFE01AA
:02034200F322A4
:10034400F8BB010DE58229F582E5833AF583E8F0EF
:10035400225006E92582C8F622BBFE05E92582C89B
:02036400F22283
:10036600BC000BBE0029EF8DF084FFADF022E4CC7B
:10037600F875F008EF2FFFEE33FEEC33FCEE9DEC44
:10038600984005FCEE9DFE0FD5F0E9E4CEFD22ED8A
:10039600F8F5F0EE8420D21CFEADF075F008EF2FD4
:1003A600FFED33FD4007985006D5F0F222C398FDC5
:0503B6000FD5F0EA2262
:0E03BB00C3E49FFFE49EFEE49DFDE49CFC2253
:10055F00020969E493A3F8E493A34003F68001F240
:10056F0008DFF48029E493A3F85407240CC8C3339D
:10057F00C4540F4420C8834004F456800146F6DF6C
:10058F00E4800B01020408102040809006BAE47E3C
:10059F00019360BCA3FF543F30E509541FFEE49361
:1005AF00A360010ECF54C025E060A840B8E493A328
:1005BF00FAE493A3F8E493A3C8C582C8CAC583CA53
:1005CF00F0A3C8C582C8CAC583CADFE9DEE780BE0B
:0107010000F7
:00000001FF
