:1008F600082B0A0A0A0A0A0A0A0A08230000000044
:100906000000000008570000000000000000033748
:06091600235950015F00AF
:100BA600E4FF742B2FF8760A74232FF8E4F60FBFB0
:020BB60008F045
:010BB800221A
:100B2100E4FFE4FEEF75F003A4244E2EF8E4F60E84
:070B3100BE03F10FBF03EB4F
:010B3800229A
:1008A100E53C453B704E753B00753C011208368FA7
:1008B10041E541653AFF5541F535E541F45FF54DB7
:1008C10085413AE53524FB601B24FD602424047036
:1008D10023120BA6755F010536E536D39402401449
:1008E100E4F53622055FE55FD394034007755F01A8
:0508F10022120B212280
:1003C900E534453360030207037533007534017B57
:1003D900007A007937120AAC7F01120A87AC07E468
:1003E900120237E4FBFA794C78421201178F408EDA
:1003F9003F8D3E8C3D7F01120A87AC07E41202371C
:10040900E4FBFA794C78421201178F408E3F8D3EFA
:100419008C3D7F03120A87AC07E4120237E4FBFA2A
:10042900794C78421201178F458E448D438C427F57
:1004390003120A87AC07E4120237E4FBFA794C7815
:10044900421201178F458E448D438C4230004A7504
:100459002C12752B12E547C4F854F0C8E548C4546A
:100469000F48540FF52DE548540FF52EE549C4F80A
:1004790054F0C8E54AC4540F48540FF52FE54A54BF
:100489000FF530E54BC4F854F0C8E54CC4540F4897
:10049900540FF531E54C020678E53614603A1470CC
:1004A9000302058F2402600302067CE537C4540F5A
:1004B900F52BE537540FF52CE538C4540FF52EE527
:1004C90038540FF52FE539C4540FF531E539540F78
:1004D900F53275300B020650752B0C752F11AF4094
:1004E900AE3FAD3EAC3D12026BEF75F00A8485F06C
:1004F9002CE4FFFE7D207C41AB40AA3FA93EA83DEC
:1005090012000E12026B7C007D0A1203668D2DE427
:10051900FFFE7DC87C42AB40AA3FA93EA83D120020
:100529000E12026B7C007D0A1203668D2E75240162
:10053900AF45AE44AD43AC4212026B7C007D0A125A
:1005490003668D30E4FFFE7D207C41AB45AA44A9BA
:1005590043A84212000E12026B7C007D0A12036648
:100569008D31E4FFFE7DC87C42AB45AA44A943A86E
:100579004212000E12026B7C007D0A1203668D3254
:1005890075280102067C752B0F855F2CE55F6401D8
:100599007047E54E701CE54F7018E55070147532C0
:1005A9000B75310B75300B752F0B752E0B752D0BCC
:1005B9008027E54EC4540FF52DE54E540FF52EE571
:1005C9004FC4540FF52FE54F540FF530E550C4547F
:1005D9000FF531E550540FF532E55F64027047E5D8
:1005E90051701CE5527018E553701475320B753152
:1005F9000B75300B752F0B752E0B752D0B8027E5A1
:1006090051C4540FF52DE551540FF52EE552C4543C
:100619000FF52FE552540FF530E553C4540FF5315A
:10062900E553540FF532E55F64037047E554701CD8
:10063900E5557018E556701475320B75310B753028
:100649000B752F0B752E0B752D0B8027E554C45494
:100659000FF52DE554540FF52EE555C4540FF52F1C
:10066900E555540FF530E556C4540FF531E55654A8
:100679000FF532AF45AE44AD43AC42AB40AA3FA9FA
:100689003EA83D1201B4505BE52245217055300169
:1006990052120BA6A200B39200C20175470085371A
:1006A9004875490085384A754B0085394CE4FF7413
:1006B900512FF8E6FE74542FF8A6060FBF03F0E495
:1006C900FF744E2FF8E6FE74512FF8A6060FBF03EC
:1006D900F0E4FF74372FF8E6FE744E2FF8A6060FE4
:1006E900BF03F0AF40AE3FAD3EAC3DAB45AA44A918
:0A06F90043A8421201B45002D201DE
:0107030022D3
:1009C200E53670072000047F0180027F008F57E523
:1009D20036B401072000047F0180027F008F58E5B2
:1009E20036B402072000047F0180027F008F59A2E3
:0609F20000E433F55E2273
:03000B00020704E5
:10070400C0E0C0F0C083C082C0D075D000C000C0BB
:1007140001C002C003C004C005C006C007053CE513
:100724003C7002053B640A453B7004F53BF53C050F
:1007340034E53470020533646445337004F533F5ED
:10074400340546E546B40803754600742B2546F87F
:10075400E6FD7C0074232546F8E6FB7A00AF4612DA
:10076400094274572546F8E6FD7C00AF4612098716
:100774003000180522E52270020521B4B80DE521E8
:10078400B40B08752100752200C200D007D006D032
:1007940005D004D003D002D001D000D0D0D082D074
:0607A40083D0F0D0E0322A
:100B6800538E7F5389F0758A18758CFCC28DD28C90
:050B7800D2A9D2AF225A
:100B5100120B687B007A007937120A2C1203C91232
:070B610008A11209C280F592
:100BB900E4FEC297EF1392A3EFC313FFD2970EBEC1
:020BC90008F032
:010BCB002207
:100B9200C29300C29700D29300120BB9AF05120B99
:040BA200B9C293221F
:1009F800E4FDC29300C29700D29300120BB9E4FF42
:100A0800C297EDC313FD30A303430580D2970FBFF0
:100A180008EEC29300C29700D29700C2A300D2A3E7
:030A280000AF0517
:010A2B0022A8
:100A2C00E4FD7F8E120B921202ECFD7F84120B926E
:100A3C00900001120305FD7F82120B9290000212AE
:0F0A4C000305FD7F80120B927D807F8E020B923F
:100AAC007F851209F8EF1203327F831209F8900048
:100ABC0001EF1203447F811209F8900002EF020348
:010ACC0044E5
:040B0700D2A07F05F4
:100B0B00000000000000000000000000000000AE2C
:060B1B00071FEE70EB2243
:0F0BCC00D2A1120B07C2A17F05120B0BC2A022F0
:0C0BDB00C2A1120B07D2A17F05020B0B78
:020A5B00AD07E5
:100A5D00E4FCC2A07F05120B0BED30E704D2A180A0
:100A6D0002C2A17F05120B0BD2A0ED25E0FD7F0583
:090A7D00120B0B0CBC08DBC2A03B
:010A8600224D
:100ACD00E4FC120B07ED25E0FD30A103430501C247
:0C0ADD00A07F05120B0B0CBC08E8AF0555
:010AE90022EA
:0B0AEA00120A5B120AF5AF03120A5B50
:100AF500120B07A2A1E433FDC2A07F05120B0BAFB9
:010B050005EA
:010B060022CC
:100B3900C2A0EF24FF92A17F05120B0B120B07C273
:080B4900A0D2A17F05020B0BF5
:100B7D00AB07120BCC7F90120A5B120AF57F411264
:050B8D000AEA020BDB87
:020A8700AB07BB
:100A8900120BCC7F90120AEA120BCC7F91120A5BEF
:100A9900120AF5120ACDAD077F01120B39120BDBD1
:020AA900AF0597
:010AAB002228
:10083600E4FFC2C4D2C2D2B520B3027F0420B20202
:100846007F0520B1027F0620B0027F07D2C4C2C254
:10085600D2B520B3027F0820B2027F0920B1027F01
:100866000A20B0027F0BD2C4D2C2C2B520B3027F27
:100876000C20B2027F0D20B1027F0E20B0027F0F46
:10088600D2C4D2C2D2B520B3027F1020B2027F11E9
:0A08960020B1027F1220B0027F1390
:0108A0002235
:06091C000108000109FFC3
:10098700ED4C600F7401A807088002C333D8FC42FE
:1009970008800E7401A807088002C333D8FCF452FC
:1009A70008E50865096013E508F4F580E5A0541F1C
:0A09B7004480F5A053A01F85080935
:0109C1002213
:100922001360C0F9A4B0999282F88090FFBF8C89BD
:0F0932008E88C7C1C608730102040810204080D8
:100942007580FFE5A0541F44E0F5A053A01F747307
:100952002FF8E6F580E5A0541F44C0F5A053A01F70
:1009620074602DF8E6F580E5A0541F44E0F5A0532D
:10097200A01FEB4A600353807FE5A0541F44E0F5BB
:05098200A053A01F229C
:10000E00EC4D6011E8497017ED33EC3304600DE4EC
:10001E00FCFFFEFD22E933E8330470F80202D7122A
:10002E0002A258046009E4CC24815006285009022B
:10003E0002E12840030202DEC0E0EB4A7044B980C0
:10004E0006D0E0FB0202CDEF4E701CBD8008EBFF28
:10005E00EAFEE9FD80EBE98DF0A4FEE5F00200F783
:10006E00E9CDF9EAFEEBFFEF89F0A4FCE5F0CE89CD
:10007E00F0A42EFFE435F0CD89F0A42DFEE435F08A
:10008E008067EF4E7005BD80D780C3EF8BF0A4ACB8
:10009E00F0EE8BF0A42CFCE435F0F8EF8AF0A42CF3
:1000AE00E5F038FCE433CB8DF0A42CFCE5F03BF806
:1000BE00EE8AF0A42CFCE5F038F8E433CF89F0A4F6
:1000CE002CFCE5F038CF3400CE89F0A42FFFE5F0FC
:1000DE003EFEE433C98DF0A42EFEE5F039CD8AF054
:1000EE00A42FFFE5F03EFEE43DFD33D0E0FB5007CC
:1000FE000BBB000F0202E1EC2CFCEF33FFEE33FEE4
:06010E00ED33FD0202B911
:100114000202E1EC5D046005E8590470030202D7B1
:100124001202A2580460F6EC4860F2EC7004FDFE82
:10013400FF22C860DB2481C85009C39860025006BE
:100144000202DE9850CAF582E9294B4A7005AB8257
:100154000202CD75F0007C1A7880C3EF9BEE9AED15
:1001640099400DC3EF9BFFEE9AFEED99FDE842F036
:10017400DC23ACF0D0E0FFD0E0FED0E0FDAB822089
:10018400E7101BEB60BAEC2CFCEF33FFEE33FEED13
:1001940033FD0202B9E803F830E705C0F075F0005A
:1001A400EF2FFFEE33FEED33FD40B830E7C280AAF7
:1001B40074F8CC6480CCC86480C8F58204604FC3F2
:1001C400EB9FF5F0EA9E42F0E99D42F0E89C45F091
:1001D400603C501DE5825FFFE582D313CB5BCBF41B
:1001E4002B5582FB50280ABA002409B90020088044
:1001F4001DE5825BFBE582D313CF5FCFF4C3132FDE
:100204005582FF50090EBE00050DBD00010CC3EB65
:100214009FF5F0EA9E42F0E99D42F0E89C45F060CB
:0902240007CC4820E701B3EC22ED
:10022D0075F020800E75F010800575F0087D007E4C
:10023D00007F003392D530D5031203BBEC33401051
:10024D00EF33FFEE33FEED33FDEC33FCD5F0ED2255
:0E025D00E5F0247EA2D513CC92E7CDCEFF2291
:10026B00EDD2E7CD33EC3392D524814006E4FFFE8B
:10027B00FDFC22FCE4CFCECDCC24E0501174FF80EA
:10028B00EDC3CC13CCCD13CDCE13CECF13CF047087
:07029B00F030D5DE0203BBC9
:1002A200E9D2E7C933E833F892D5EDD2E7CD33ECA2
:0702B20033FC5002B2D5221B
:1002B900EC30E7100FBF000C0EBE00080DBD0004A6
:1002C9000BEB6014A2D5EB13FCED92E7FD2274FF52
:1002D900FCFDFEFF22E480F8A2D574FF13FC7D80AB
:0302E900E480EFBF
:030000000207AA4A
:0C07AA00787FE4F6D8FD75817A0207F133
:1002EC00BB010689828A83E0225002E722BBFE0210
:0902FC00E32289828A83E4932243
:10030500BB010CE58229F582E5833AF583E02250AD
:1003150006E92582F8E622BBFE06E92582F8E222F7
:0D032500E58229F582E5833AF583E4932211
:10033200BB010689828A83F0225002F722BBFE01AA
:02034200F322A4
:10034400F8BB010DE58229F582E5833AF583E8F0EF
:10035400225006E92582C8F622BBFE05E92582C89B
:02036400F22283
:10036600BC000BBE0029EF8DF084FFADF022E4CC7B
:10037600F875F008EF2FFFEE33FEEC33FCEE9DEC44
:10038600984005FCEE9DFE0FD5F0E9E4CEFD22ED8A
:10039600F8F5F0EE8420D21CFEADF075F008EF2FD4
:1003A600FFED33FD4007985006D5F0F222C398FDC5
:0503B6000FD5F0EA2262
:0E03BB00C3E49FFFE49EFEE49DFDE49CFC2253
:1007B600020B51E493A3F8E493A34003F68001F2FD
:1007C60008DFF48029E493A3F85407240CC8C33344
:1007D600C4540F4420C8834004F456800146F6DF13
:1007E600E4800B01020408102040809008F6E47EA5
:1007F600019360BCA3FF543F30E509541FFEE49308
:10080600A360010ECF54C025E060A840B8E493A3CE
:10081600FAE493A3F8E493A3C8C582C8CAC583CAF9
:10082600F0A3C8C582C8CAC583CADFE9DEE780BEB1
:0109410000B5
:00000001FF
