:1008B7007580FFE5A0541F4480F5A0E5A0541FF5FF
:1008C700A0E4F580E5A0541F44A0F5A0E5A0541FBF
:0208D700F5A08A
:0108D90022FC
:1006F900E4FFC2C4D2C2D2B5D2B420B0027F07206F
:10070900B1027F0620B2027F0520B3027F04D2C462
:10071900C2C2D2B5D2B420B0027F0B20B1027F0A87
:1007290020B2027F0920B3027F08D2C4D2C2C2B567
:10073900D2B420B0027F0F20B1027F0E20B2027F17
:100749000D20B3027F0CD2C4D2C2D2B5C2B420B03C
:10075900027F1320B1027F1220B2027F1120B3025F
:020769007F10FF
:01076B00226B
:10076C000E08C0F9A4B0999282F88090FFC68689D1
:0A077C000816010204081020408056
:0207B300A90794
:1007B5007580FFE5A0541F44E0F5A0E5A0541FF5A2
:1007C500A074162DF8E6F580E5A0541F44C0F5A0E9
:1007D500E5A0541FF5A0740829F8E6F580EB4A60FA
:1007E5000353807FE5A0541F44E0F5A0E5A0541F06
:0207F500F5A06D
:0107F70022DF
:04091300D2A07F0AE5
:10091700000000000000000000000000000000AE22
:06092700071FEE70EB2239
:0F099100D2A1120913C2A17F0A120917C2A02214
:0C09A000C2A1120913D2A17F0A0209179C
:02086500AD07DD
:10086700E4FCC2A07F0A120917ED30E704D2A18089
:1008770002C2A17F0A120917D2A0ED25E0FD7F0A67
:090887001209170CBC08DBC2A029
:010890002245
:1008DA00E4FC120913ED25E0FD30A103430501C232
:0C08EA00A07F0A1209170CBC08E8AF053B
:0108F60022DF
:0A08F700AB071209917F901208650B
:10090100120913A2A1E433FDC2A07F0A120917AF95
:0109110005E0
:0109120022C2
:10092D00C2A0EF24FF92A17F0A120917120913C268
:08093D00A0D2A17F0A020917F4
:100891001208F7AF031208651209011209917F913D
:1008A1001208651209011208DAAD077F0112092D3C
:0508B1001209A0AF05D3
:0108B600221F
:10095A001208F77F41120865120901AF03120865F0
:03096A000209017E
:06078600011E00011FFF2F
:1007F800ED4C600F7401A807088002C333D8FC428F
:100808001E800E7401A807088002C333D8FCF45276
:100818001EE51E651F6013E51EF4F580E5A0541F54
:0A0828004480F5A053A01F851E1F99
:0108320022A3
:10078C00082C0A0A0A0A0A0A0A0A082200000000AF
:10079C000000000008460000000000000000C1003E
:0607AC00012132013803B7
:10096D00E4FF742C2FF8760A74222FF8E4F60FBFEB
:02097D0008F080
:01097F002255
:10052800E544C3940A50030205CEE4F5441206F9E3
:100538008F37E5366537FF5537F534E537F45FF51E
:1005480045853736AF387E007C037DE81203E48E9C
:100558002A8F2BE53424FB606824FD601714603B68
:100568002405706212096D0535E535D394024056AD
:10057800E4F53522E535B4010F74FB2521F521C3D7
:10058800941E504275215A22E53564027038153898
:10059800E538C39401502F75380A22E535B4010FA8
:1005A80074052521F521D3945A401B75211E22E597
:1005B80035B402120538E538D3940A400975380174
:0705C80022A200B392002201
:10040400C3E543942CE54294015003020527E4F527
:1004140042F543E53514602A14604A2402706E756F
:100424002C0BE53DC3940A500875320A853D338090
:100434005CE53D75F00A8475F00A8485F032E53D8B
:100444008044752C0CE521C3940A500875320A8542
:1004540021338039E52175F00A8475F00A8485F02A
:1004640032E5218021752C0DE538C3940A500875B6
:10047400320A8538338016E53875F00A8475F00A37
:100484008485F032E53875F00A8485F03330000E47
:10049400E53DC39521501CD2017580108003E4F51D
:1004A40080E5A0541F44A0F53FF5A0E5A0541FF536
:1004B4003FF5A07F03120891AC07E412032FE4FB7D
:1004C400FA794C784212020F8F3C8E3B8D3A8C396C
:1004D400E4FFFE7D807C3FAB3CAA3BA93AA83912DD
:1004E40002AC60025004753D0A22E4FFFE7D807C6C
:1004F40040AB3CAA3BA93AA8391202AC4004753D72
:100504005A22E4FFFE7DD07C41AB3CAA3BA93AA829
:1005140039120106E4FBFA798078C112001512033E
:04052400638F3D2282
:10083300E53570047F0180027F008F46E535B40102
:10084300047F0180027F008F47E535B402047F01F6
:1008530080027F008F482000047F0080027F018F89
:020863004D2224
:03000B000205CF1C
:1005CF00C0E0C0F0C083C082C0D075D000C000C0F2
:1005DF0001C002C003C004C005C006C00705440522
:1005EF0043E54370020542053EE53EB40803753E00
:1005FF0000742C253EF8E6FFE53EFD7C002422F832
:10060F00E6FB7A001207B37446253EF8E6FD7C0040
:10061F00AF3E1207F830012B0541E541700205404E
:10062F00B52B20E540B52A1B75400075410075803C
:10063F0000E5A0541F44A0F53FF5A0E5A0541FF519
:10064F003FF5A0D007D006D005D004D003D002D0FC
:0E065F0001D000D0D0D082D083D0F0D0E032D5
:10094500538E7F5389F0758A18758CFCC28DD28CB5
:05095500D2A9D2AF227F
:100980001208B71209451204041205281208338010
:01099000F571
:10000E000203CFE86480F8E933E83360110460F04E
:10001E00ED33EC337009E8FCE9FDEAFEEBFF220458
:10002E0060DED3EB9FEA9EE99DE8C2E78CF0C2F753
:10003E0095F0400CE8CCF8E9CDF9EACEFAEBCFFB1F
:10004E0012039A85D0F05804700320D5B3E80470DB
:10005E00075002B2D50203D992D5EC0460F7E4CC76
:10006E00C0E0C398F8603B94186008400DD0E0FBE8
:10007E000203B1E4FBFAC9FC8028E830E406E4C9C7
:10008E00FBE4CAFCE830E305E4C9CACBFCE854073C
:10009E006010F8C3E913F9EA13FAEB13FBEC13FC47
:1000AE00D8F130F52FC3E49CFCEF9BFFEE9AFEEDEA
:1000BE0099FDD0E0FBEF4E4D4C701222DB03020394
:1000CE00D6EC2CFCEF33FFEE33FEED33FDED30E7D7
:1000DE00EB0203B1EF2BFFEE3AFEED39FDD0E0FB64
:1000EE0050130BBB00030203D9ED13FDEE13FEEF0D
:0800FE0013FFEC13FC0203B137
:10010600EC4D6011E8497017ED33EC3304600DE4F3
:10011600FCFFFEFD22E933E8330470F80203CF1238
:10012600039A58046009E4CC248150062850090239
:1001360003D92840030203D6C0E0EB4A7044B980D5
:1001460006D0E0FB0203C5EF4E701CBD8008EBFF36
:10015600EAFEE9FD80EBE98DF0A4FEE5F00201EF91
:10016600E9CDF9EAFEEBFFEF89F0A4FCE5F0CE89D4
:10017600F0A42EFFE435F0CD89F0A42DFEE435F091
:100186008067EF4E7005BD80D780C3EF8BF0A4ACBF
:10019600F0EE8BF0A42CFCE435F0F8EF8AF0A42CFA
:1001A600E5F038FCE433CB8DF0A42CFCE5F03BF80D
:1001B600EE8AF0A42CFCE5F038F8E433CF89F0A4FD
:1001C6002CFCE5F038CF3400CE89F0A42FFFE5F003
:1001D6003EFEE433C98DF0A42EFEE5F039CD8AF05B
:1001E600A42FFFE5F03EFEE43DFD33D0E0FB5007D3
:1001F6000BBB000F0203D9EC2CFCEF33FFEE33FEF2
:06020600ED33FD0203B11F
:10020C000203D9EC5D046005E8590470030203CFC6
:10021C0012039A580460F6EC4860F2EC7004FDFE90
:10022C00FF22C860DB2481C85009C39860025006C5
:10023C000203D69850CAF582E9294B4A7005AB8265
:10024C000203C575F0007C1A7880C3EF9BEE9AED23
:10025C0099400DC3EF9BFFEE9AFEED99FDE842F03D
:10026C00DC23ACF0D0E0FFD0E0FED0E0FDAB822090
:10027C00E7101BEB60BAEC2CFCEF33FFEE33FEED1A
:10028C0033FD0203B1E803F830E705C0F075F00068
:10029C00EF2FFFEE33FEED33FD40B830E7C280AAFE
:1002AC0074F8CC6480CCC86480C8F58204604FC3F9
:1002BC00EB9FF5F0EA9E42F0E99D42F0E89C45F098
:1002CC00603C501DE5825FFFE582D313CB5BCBF422
:1002DC002B5582FB50280ABA002409B9002008804B
:1002EC001DE5825BFBE582D313CF5FCFF4C3132FE5
:1002FC005582FF50090EBE00050DBD00010CC3EB6D
:10030C009FF5F0EA9E42F0E99D42F0E89C45F060D2
:09031C0007CC4820E701B3EC22F4
:1003250075F020800E75F010800575F0087D007E53
:10033500007F003392D530D5031203F6EC3340101D
:10034500EF33FFEE33FEED33FDEC33FCD5F0ED225C
:0E035500E5F0247EA2D513CC92E7CDCEFF2298
:10036300EDD2E7CD33EC3392D524814006E4FFFE92
:10037300FDFC22FCE4CFCECDCC24E0501174FF80F1
:10038300EDC3CC13CCCD13CDCE13CECF13CF04708E
:07039300F030D5DE0203F695
:10039A00E9D2E7C933E833F892D5EDD2E7CD33ECA9
:0703AA0033FC5002B2D52222
:1003B100EC30E7100FBF000C0EBE00080DBD0004AD
:1003C1000BEB6014A2D5EB13FCED92E7FD2274FF59
:1003D100FCFDFEFF22E480F8A2D574FF13FC7D80B2
:0303E100E480EFC6
:0300000002066D88
:0C066D00787FE4F6D8FD75814D0206B4DC
:1003E400EF8DF0A4A8F0CF8CF0A428CE8DF0A42E2D
:0203F400FE22E7
:0E03F600C3E49FFFE49EFEE49DFDE49CFC2218
:10067900020980E493A3F8E493A34003F68001F20E
:1006890008DFF48029E493A3F85407240CC8C33382
:10069900C4540F4420C8834004F456800146F6DF51
:1006A900E4800B010204081020408090076CE47E6E
:1006B900019360BCA3FF543F30E509541FFEE49346
:1006C900A360010ECF54C025E060A840B8E493A30D
:1006D900FAE493A3F8E493A3C8C582C8CAC583CA38
:1006E900F0A3C8C582C8CAC583CADFE9DEE780BEF0
:0107B2000046
:00000001FF
