:04074700D2A07F0AB3
:10074B00000000000000000000000000000000AEF0
:06075B00071FEE70EB2207
:0F07C800D2A1120747C2A17F0A12074BC2A0227B
:0C07D700C2A1120747D2A17F0A02074B03
:02068F00AD07B5
:10069100E4FCC2A07F0A12074BED30E704D2A1802F
:1006A10002C2A17F0A12074BD2A0ED25E0FD7F0A0D
:0906B10012074B0CBC08DBC2A0CF
:0106BA00221D
:10072A00E4FC120747ED25E0FD30A103430501C2B1
:0C073A00A07F0A12074B0CBC08E8AF05BA
:010746002290
:10070600AB051207C87FA012068F120718AF031297
:02071600068F4C
:10071800120747A2A1E433FDC2A07F0A12074BAF1C
:0107280005CB
:0107290022AD
:10076100C2A0EF24FF92A17F0A12074B120747C2D2
:08077100A0D2A17F0A02074B90
:100522008B588A59895A120706AF5C155CEF601F17
:10053200AB58055AE55AAA597002055914F9120125
:100542005FFF12068F1207187FC812074B80DA125C
:1005520007D77FFF12074B7FFF12074B7FFF120760
:060562004B7FFF02074B76
:1005AB008B538A5489551207061207C87FA112066E
:1005BB008F120718AF571557EF602412072AAB534A
:1005CB000555E555AA547002055414F9EF1201A50F
:1005DB00E5576004E4FF80027F0112076180D502BA
:0205EB0007D730
:10046B00E4FFC2C4D2C2D2B5D2B420B1027F6320A2
:10047B00B2027F0C20B3027F0BD2C4C2C2D2B5D260
:10048B00B420B1027F0120B2027F0420B3027F07A8
:10049B00D2C4D2C2C2B5D2B420B0027F0F20B102F7
:1004AB007F0220B2027F0520B3027F08D2C4D2C2E2
:1004BB00D2B5C2B420B0027F1320B1027F0320B2A9
:0804CB00027F0620B3027F0945
:0104D3002206
:0604D400015D00015EFF66
:10037C00E4785DF690000112017825E0FF12015F30
:10038C004FFF90000212017825E025E04FFF90000E
:10039C000312017833333354F84FFF9000041201E9
:1003AC0078C454F04FFF900005120178C43354E028
:1003BC004FFF900006120178C4333354C04FFF90A6
:1003CC000007120178C433333354804FFF785DF645
:1003DC0008E66F601918E6FFF4F580E5A0541FFEDF
:0E03EC004306808EA0E5A0541FF5A008A607CA
:0103FA0022E0
:1004DA00103BC0F9A4B0999282F88090FF888C866C
:0C04EA00BFC6084B01020408102040802F
:100568007580FFE5A0541F44E0F5A0E5A0541FF5F1
:10057800A0744B2FF8E6F580E5A0541F44C0F5A001
:10058800E5A0541FF5A0743B2DF8E6F580EB4A6012
:100598000353807FE5A0541F44E0F5A0E5A0541F55
:0205A800F5A0BC
:0105AA00222E
:1007A200E4FEC297EF1392A3EFC313FFD2970EBEDC
:0207B20008F04D
:0107B4002222
:10078E00C29300C29700D293001207A2AF051207C0
:04079E00A2C293223E
:10062700E4FDC29300C29700D293001207A2E4FF31
:10063700C297EDC313FD30A303430580D2970FBFC5
:1006470008EEC29300C29700D29700C2A300D2A3BC
:0306570000AF05EC
:01065A00227D
:10065B00E4FD7F8E12078E7F8012078E12015FFDE5
:10066B007F8412078E900001120178FD7F821207A2
:10067B008E900002120178FD7F8012078E7D807FA5
:04068B008E02078E46
:1006BB00C2AF7F85120627EF1201A57F8312062793
:1006CB00900001EF1201B77F81120627900002EF15
:0606DB001201B7D2AF22AC
:1004F6000308020959083300000000000000000844
:10050600180A0A0A0A0A0A0A0A080F000000000066
:0B051600000000020D0000020B0000BE
:1007B500E4FF74182FF8760A740F2FF8E4F60FBFCC
:0207C50008F03A
:0107C700220F
:10024000E52DC3940A50030202EFE4F52D12046B6E
:100250008F27E5246527FF5527F520E527F45FF56F
:1002600030852724E4F531E520B46306753101E4D7
:10027000F5177401D39520500CE5209409500675AC
:100280003101852717E53164017039E532C39404E3
:1002900050320532AE0DAF0E7C007D0A1201D9EF4F
:1002A0002517F50EEC3EF50DE532B4010685080B79
:1002B00085090CE532B4040C852E2B852F2C850D79
:1002C0002E850E2FE52024F460190470220521E507
:1002D00021D394024003E4F521E4F50DF50EF53247
:1002E0000207B5E521B40107E4F50DF50EF532225C
:10000E00C3E52A9490E5299401500302015EE4F5BC
:10001E0029F52AFB7A0079081206BBE52114603B0C
:10002E001470030200EA2402600302015EE508C4B4
:10003E00540FF518E508540FF519E509C4540FF5DA
:10004E001BE509540FF51CE50AC4540FF51EE50A0D
:10005E00540FF51F751D0E751A0E2275180FE50E2D
:10006E00450D700D751F0A751E0A751D0A751C0A41
:10007E0022D3E50E94E7E50D94034014AE0DAF0EBA
:10008E007C037DE81201EB7C007D0A1201EB8D1CD6
:10009E00D3E50E9463E50D94004014AE0DAF0E7CC7
:1000AE00007D641201EB7C007D0A1201EB8D1DD3E5
:1000BE00E50E9409E50D94004014AE0DAF0E7C00D4
:1000CE007D0A1201EB7C007D0A1201EB8D1EAE0D36
:1000DE00AF0E7C007D0A1201EB8D1F2275180DE507
:1000EE000BC4540FF51BE50B540FF51CE50CC45453
:1000FE000FF51EE50C540FF51F751D0EE51B75F063
:10010E000AA4251CF522E51E75F00AA4251FF52369
:10011E007B007A007922755C01E4FD1205227B00DA
:10012E007A007923755C017D01120522E50DF52516
:10013E00E50EF5267B007A007925755C017D0212AD
:10014E0005227B007A007926755C017D031205225B
:01015E00227E
:1005ED00E52170047F0180027F008F33E521B40186
:1005FD00047F0180027F008F34E521B402047F0166
:10060D0080027F008F35C3E52C952FE52B952E505D
:0A061D00047F0180027F008F362267
:03000B000203FBF2
:1003FB00C0E0C0F0C083C082C0D075D000C000C0C8
:10040B0001C002C003C004C005C006C007052D050E
:10041B002AE52A700205290528E528D3940840030C
:10042B00752800AF287E0074182528F8E6FD7C009F
:10043B00740F2528F8E6FB7A001205687B007A001A
:10044B00793312037CD007D006D005D004D003D06B
:10045B0002D001D000D0D0D082D083D0F0D0E03207
:10077900538E7F5389F0758A18758CFCC28DD28C83
:05078900D2A9D2AF224D
:1006E1007580FFE5A0541F4480F5A053A01F120799
:1006F100797B007A00790812065B12024012000E23
:050701001205ED80F57A
:030000000202F009
:0C02F000787FE4F6D8FD75815E020337CC
:10015F00BB010689828A83E0225002E722BBFE029E
:09016F00E32289828A83E49322D1
:10017800BB010CE58229F582E5833AF583E022503C
:1001880006E92582F8E622BBFE06E92582F8E22286
:0D019800E58229F582E5833AF583E49322A0
:1001A500BB010689828A83F0225002F722BBFE0139
:0201B500F32233
:1001B700F8BB010DE58229F582E5833AF583E8F07E
:1001C700225006E92582C8F622BBFE05E92582C82A
:0201D700F22212
:1001D900EF8DF0A4A8F0CF8CF0A428CE8DF0A42E3A
:0201E900FE22F4
:1001EB00BC000BBE0029EF8DF084FFADF022E4CCF8
:1001FB00F875F008EF2FFFEE33FEEC33FCEE9DECC1
:10020B00984005FCEE9DFE0FD5F0E9E4CEFD22ED06
:10021B00F8F5F0EE8420D21CFEADF075F008EF2F50
:10022B00FFED33FD4007985006D5F0F222C398FD41
:05023B000FD5F0EA22DE
:1002FC000206E1E493A3F8E493A34003F68001F231
:10030C0008DFF48029E493A3F85407240CC8C33302
:10031C00C4540F4420C8834004F456800146F6DFD1
:10032C00E4800B01020408102040809004D4E47E89
:10033C00019360BCA3FF543F30E509541FFEE493C6
:10034C00A360010ECF54C025E060A840B8E493A38D
:10035C00FAE493A3F8E493A3C8C582C8CAC583CAB8
:10036C00F0A3C8C582C8CAC583CADFE9DEE780BE70
:0105210000D9
:00000001FF
