:0E00E7001200CA7D017C007F0312008F80F59D
:1000CA007580FFE5A0541F4480F5A053A01FE4F5F6
:0D00DA0080E5A0541F44A0F5A053A01F22F4
:0600F5000108000109FFF3
:10008F00ED4C600F7401A807088002C333D8FC42FF
:10009F0008800E7401A807088002C333D8FCF452FD
:1000AF0008E50865096013E508F4F580E5A0541F1D
:0A00BF004480F5A053A01F85080936
:0100C9002214
:03000000020003F8
:0C000300787FE4F6D8FD75810902004A00
:10000F000200E7E493A3F8E493A34003F68001F220
:10001F0008DFF48029E493A3F85407240CC8C333F2
:10002F00C4540F4420C8834004F456800146F6DFC1
:10003F00E4800B01020408102040809000F5E47E5C
:10004F00019360BCA3FF543F30E509541FFEE493B6
:10005F00A360010ECF54C025E060A840B8E493A37D
:10006F00FAE493A3F8E493A3C8C582C8CAC583CAA8
:10007F00F0A3C8C582C8CAC583CADFE9DEE780BE60
:0100FB000004
:00000001FF
