:100C360008340A0A0A0A0A0A0A0A082800000000F2
:100C460000000000086B00000000000000000343E5
:100C560013030502260000014100015D1E0130005C
:10105E00E4FF74282FF8E4F674342FF8760A0FBFE5
:02106E0008F088
:01107000225D
:100A5A00E54845476003020B3E7547007548011299
:100A6A000BCB8F49E5466549FF5549F53EE549F403
:100A7A005FF559854946E5306402704CE53EB40994
:100A8A0002D200C3E52594D0E5249407403AE559FB
:040A9A006409703447
:100A9E00F514C200AF218F73AC0712033F8F678E20
:100AAE00668D658C648F618E608D5F8C5EE4F56201
:100ABE00F524F525F51474682514F8E4F60514E507
:040ACE0014B402F268
:100AD200E53E24FB602524FD604F14603824057038
:100AE2005BE531705712105EE4F5300541E541D304
:100AF20094024003E4F54185414222E531703DE52F
:100B0200416401703712105E0530E530D394024023
:100B12002BE4F53022E5317023E541B4021E155D68
:100B2200E55DB4FF17755D6322E531700FE541B4F1
:0D0B3200020A055DE55DB46403E4F55D2293
:1004D100E53D453C6003020943753C00753D017BE8
:1004E100007A007943120F5985635C7F41120EED4A
:1004F100AC07E412033FE4FBFA794C784212021F85
:100501001203738F63120DD08F4D8E4C8D4B8C4A1D
:10051100E4FFFEFDFCAB4DAA4CA94BA84A1202BC5C
:10052100500BE4F54DF54CF54BF54A8021E4FFFE07
:100531007DC67C42AB4DAA4CA94BA84A1202BC60B5
:100541000D400BE4F54DF54C754BC6754A42C3E5BC
:100551004F94C8E54E9400400BD3E54F94D0E54E3F
:100561009407400BE4F557F556F555F554802BE506
:100571004F2438FFE54E34FFFEEF25E0FFEE33FE5A
:100581007C007D2D12046EEF240AFDE43EFCE41292
:10059100033A8F578E568D558C54AC5CE412033F51
:1005A100E4FBFA792078401202BC400302062DAC2C
:1005B10063E412033FE4FBFA792078401202BC6045
:1005C1006B4069E5317065AF4DAE4CAD4BAC4A1235
:1005D10003738F3FAF57AE56AD55AC541203738FB3
:1005E10040E562C394024014E53FD39532400BE5E8
:1005F10040D395334004D2048002C204853F328542
:100601004033E4FFFEFDFCAB57AA56A955A854128E
:1006110002BC600A0562E562B46403756263753108
:10062100017B007A007968120F598013E531B4011A
:100631000EC3E52794B8E526940B4003E4F531E5B4
:100641003170030207B275341275350A75360AAF77
:100651004DAE4CAD4BAC4A120373EF75F00A847585
:10066100F00A8485F037EF75F00A8485F038753922
:100671000BE4FFFEFDFCAB57AA56A955A854120284
:10068100BC700BC202753A0E753B0E020940D202D4
:10069100AF57AE56AD55AC54120373EF75F00A84E3
:1006A10075F00A8485F03AEF75F00A8485F03BAC69
:1006B1005DE412033FAB4DAA4CA94BA84A1202BC00
:1006C10060064004D2018002C201AC73E412033F10
:1006D100AB4DAA4CA94BA84A1202BC600F400DAF0A
:1006E1004DAE4CAD4BAC4A1203738002AF738F73A6
:1006F100AC21E412033FAB57AA56A955A8541202E4
:10070100BC600F400DAF57AE56AD55AC54120373DC
:100711008002AF218F21E56224FFFDE434FFFCE478
:1007210012033AAB67AA66A965A864120116AB5712
:10073100AA56A955A854120025C004C005C006C078
:1007410007AC62E412033FA804A905AA06AB07D0CF
:1007510007D006D005D00412021F8F678E668D6503
:100761008C64E56224FFFDE434FFFCE412033AAB40
:1007710061AA60A95FA85E120116AB4DAA4CA94BF4
:10078100A84A120025C004C005C006C007AC62E437
:1007910012033FA804A905AA06AB07D007D006D0CB
:1007A10005D00412021F8F618E608D5F8C5E02097D
:1007B10040E54114603D14700302091824026003EE
:1007C100020943E543C4540FF534E543540FF535AD
:1007D10075360BE544C4540FF537E544540FF5382D
:1007E10075390BE545C4540FF53AE545540FF53B12
:1007F100020940E54164016003020943E530706587
:1008010012105E75340FE562605B75350AE573752C
:10081100F00A8475F00A8485F036E57375F00A8470
:1008210085F03775380BAF61AE60AD5FAC5E12031A
:1008310073EF75F00A8475F00A8485F039EF75F06D
:100841000A8485F03AE4FFFE7D207C41AB61AA6019
:10085100A95FA85E120116120373EF75F00A848571
:10086100F03B752E01E5306401706512105E753440
:1008710010E562605B75350AE52175F00A8475F053
:100881000A8485F036E52175F00A8485F0377538DC
:100891000BAF67AE66AD65AC64120373EF75F00A1A
:1008A1008475F00A8485F039EF75F00A8485F03A91
:1008B100E4FFFE7D207C41AB67AA66A965A86412AE
:1008C1000116120373EF75F00A8485F03B752E0152
:1008D100E5306402706C12105EE4F52E753411E59A
:1008E1006275F00A8475F00A8485F035E56275F069
:1008F1000A8485F036E5626049E568C4540FF5372E
:10090100E568540FF53875390BE569C4540FF53AAC
:10091100E569540FF53B2275340C75350A75360AB5
:1009210075370A75380A75390AE55D75F00A8475F7
:10093100F00A8485F03AE55D75F00A8485F03BE4C0
:03094100F52E226E
:100C8C00E54170047F0180027F008F6BE541B40168
:100C9C00047F0180027F008F6CE541B402047F0168
:100CAC0080027F008F6D300107A203E433FF8002C6
:100CBC007F008F6E3002047F0180027F008F6F30C7
:0B0CCC0004047F0180027F008F702273
:03001B0002094493
:10094400C0E0C0F0C083C082C0D075D000C000C079
:1009540001C002C003C004C005C006C0070548E5C5
:100964004870020547640A45477004F547F5480591
:100974003DE53D7002053C6414453C7004F53CF5CE
:100984003D0558E558B4080375580074342558F8E3
:10099400E6FD7C0074282558F8E6FB7A00AF58126F
:1009A4000CD7746B2558F8E6FD7C00AF58120D5E29
:1009B400E53160190527E52770020526C394B8E5DB
:1009C40026940B400E75260B7527B98006752600F4
:1009D4007527003000190525E52570020524D394F8
:1009E400D0E5249407400E7524077525D18006753B
:1009F400240075250030011C055BE55B7002055A77
:100A0400C39464E55A9400400B755A00755B00A2C8
:100A140003B392030523E52370020522FFAE22BE31
:100A24000319BFE816752200752300AF8CEFAD8A59
:100A3400F54EEDF54F758A00758C00D007D006D0C1
:100A440005D004D003D002D001D000D0D0D082D0C1
:060A540083D0F0D0E03277
:10102000538EBF53890F758B18758DFCC28FD28E6E
:05103000D2ABD2AF229B
:10107100538E7F5389F0438905E4F58AF58CC28D3F
:03108100D28C22EC
:0E10A80000007F237E337DB6DDFEDEFCDFFA26
:0110B6002217
:100F3600120FB51210201210717B007A007943123D
:100F46000E6B1210A8120DD01204D1120A5A120CEE
:030F56008C80F597
:040FD200D2A07F0525
:100FD600000000000000000000000000000000AE5D
:060FE600071FEE70EB2274
:0F10B700D2A1120FD2C2A17F05120FD6C2A02262
:0C10C600C2A1120FD2D2A17F05020FD6EA
:020E9A00AD07A2
:100E9C00E4FCC2A07F05120FD6ED30E704D2A1808E
:100EAC0002C2A17F05120FD6D2A0ED25E0FD7F0571
:090EBC00120FD60CBC08DBC2A029
:010EC500220A
:100F9800E4FC120FD2ED25E0FD30A103430501C2A8
:0C0FA800A07F05120FD60CBC08E8AF05B6
:010FB400221A
:100F1200AB051210B77FA0120E9A120F24AF031264
:020F22000E9A25
:100F2400120FD2A2A1E433FDC2A07F05120FD6AFE7
:010F340005B7
:010F35002299
:10000300C2A0EF24FF92A17F05120FD6120FD2C216
:08001300A0D2A17F05020FD667
:020EED00AB0751
:100EEF001210B77F90120F191210B77F91120E9A2E
:100EFF00120F24120F98AD077F011200031210C6B4
:020F0F00AF052C
:010F110022BD
:10103500AB071210B77F90120E9A120F247F411240
:051045000F190210C6A6
:100D1C008B088A09890A120F121210B77FA1120EC2
:100D2C009A120F24AF0C150CEF6024120F98AB081D
:100D3C00050AE50AAA097002050914F9EF12043A2A
:100D4C00E50C6004E4FF80027F0112000380D502F1
:020D5C0010C6BF
:100E39008B0D8A0E890F120F12AF111511EF601F5A
:100E4900AB0D050FE50FAA0E7002050E14F912037A
:100E5900F4FF120E9A120F247FC8120FD680DA02FD
:020E690010C6B1
:10108400E4FEC297EF1392A3EFC313FFD2970EBEF1
:0210940008F062
:011096002237
:10104A00C29300C29700D29300121084AF05121007
:04105A0084C2932297
:100E0500E4FDC29300C29700D29300121084E4FF60
:100E1500C297EDC313FD30A303430580D2970FBFDF
:100E250008EEC29300C29700D29700C2A300D2A3D6
:030E350000AF0506
:010E38002297
:100E6B00E4FD7F8E12104A1203F4FD7F8412104AA8
:100E7B0090000112040DFD7F8212104A90000212A5
:0F0E8B00040DFD7F8012104A7D807F8E02104A79
:100F59007F85120E05EF12043A7F83120E05900069
:100F690001EF12044C7F81120E05900002EF02047A
:010F79004C2B
:100FB5007580FFE5A0541F4480F5A053A01FE4F5FC
:0D0FC50080E5A0541F44A0F5A053A01F22FA
:100BCB00E4FFC2C4D2C2D2B520B3027F0420B2026A
:100BDB007F0520B1027F0620B0027F07D2C4C2C2BC
:100BEB00D2B520B3027F0820B2027F0920B1027F69
:100BFB000A20B0027F0BD2C4D2C2C2B520B3027F8F
:100C0B000C20B2027F0D20B1027F0E20B0027F0FAD
:100C1B00D2C4D2C2D2B520B3027F1020B2027F1150
:0A0C2B0020B1027F1220B0027F13F7
:010C3500229C
:060C66000112000113FF62
:100D5E00ED4C600F7401A807088002C333D8FC4223
:100D6E0012800E7401A807088002C333D8FCF45217
:100D7E0012E51265136013E512F4F580E5A0541F19
:0A0D8E004480F5A053A01F85121346
:010D98002238
:040FEC007F057E00FF
:100FF000EF1FAA0670011E4A600BE4FDEDC3940CBE
:0510000050EE0D80F729
:0110050022C8
:020F7A00A907C5
:100F7C00E4FBC294E9139294120FECD294E9C313DC
:0C0F8C00F90BBB08ED7F057E00020FF0A2
:10100600E4FBC294ECC313FCD294309403430480F3
:09101600120FEC0BBB08EBAF0458
:01101F0022AE
:100EC600C205D2947F0C7E00120FF0C2947F507E32
:100ED60000120FF0D2947F0A7E00120FF0A29492B5
:060EE60005120FECA2054D
:010EEC0022E3
:100DD000120EC67FCC120F7A7F44120F7A120EC603
:100DE0007FCC120F7A7FBE120F7A121006A907125B
:100DF0001006EFAD01FCE412033AE4FBFA798078C7
:040E00004112021F7A
:010E040022CB
:100C6C001374C0F9A4B0999282F88090FFBF8C8362
:0F0C7C0088C6898E8608870102040810204080F0
:100CD7007580FFE5A0541F44E0F5A053A01F74875B
:100CE7002FF8E6F580E5A0541F44C0F5A053A01FD8
:100CF70074742DF8E6F580E5A0541F44E0F5A05381
:100D0700A01FEB4A600353807FE5A0541F44E0F522
:050D1700A053A01F2203
:0610D20000007F21DFFE9B
:0110D80022F5
:10109700E4FED2901210D2C2901210D20EBE08F205
:0110A7002226
:100D990053890FE4F58BF58DD28E309103308FFA9C
:100DA900C28E208F1CAF8DEFFEAD8BEDFFAC06E43C
:100DB90012033A7B967A43798B783C120116020327
:060DC90073C28FE4FEFF7F
:010DCF002201
:10001E000203DFE86480F8E933E83360110460F02E
:10002E00ED33EC337009E8FCE9FDEAFEEBFF220448
:10003E0060DED3EB9FEA9EE99DE8C2E78CF0C2F743
:10004E0095F0400CE8CCF8E9CDF9EACEFAEBCFFB0F
:10005E001203AA85D0F05804700320D5B3E80470BB
:10006E00075002B2D50203E992D5EC0460F7E4CC56
:10007E00C0E0C398F8603B94186008400DD0E0FBD8
:10008E000203C1E4FBFAC9FC8028E830E406E4C9A7
:10009E00FBE4CAFCE830E305E4C9CACBFCE854072C
:1000AE006010F8C3E913F9EA13FAEB13FBEC13FC37
:1000BE00D8F130F52FC3E49CFCEF9BFFEE9AFEEDDA
:1000CE0099FDD0E0FBEF4E4D4C701222DB03020384
:1000DE00E6EC2CFCEF33FFEE33FEED33FDED30E7B7
:1000EE00EB0203C1EF2BFFEE3AFEED39FDD0E0FB44
:1000FE0050130BBB00030203E9ED13FDEE13FEEFED
:08010E0013FFEC13FC0203C116
:10011600EC4D6011E8497017ED33EC3304600DE4E3
:10012600FCFFFEFD22E933E8330470F80203DF1218
:1001360003AA58046009E4CC248150062850090219
:1001460003E92840030203E6C0E0EB4A7044B980A5
:1001560006D0E0FB0203D5EF4E701CBD8008EBFF16
:10016600EAFEE9FD80EBE98DF0A4FEE5F00201FF71
:10017600E9CDF9EAFEEBFFEF89F0A4FCE5F0CE89C4
:10018600F0A42EFFE435F0CD89F0A42DFEE435F081
:100196008067EF4E7005BD80D780C3EF8BF0A4ACAF
:1001A600F0EE8BF0A42CFCE435F0F8EF8AF0A42CEA
:1001B600E5F038FCE433CB8DF0A42CFCE5F03BF8FD
:1001C600EE8AF0A42CFCE5F038F8E433CF89F0A4ED
:1001D6002CFCE5F038CF3400CE89F0A42FFFE5F0F3
:1001E6003EFEE433C98DF0A42EFEE5F039CD8AF04B
:1001F600A42FFFE5F03EFEE43DFD33D0E0FB5007C3
:100206000BBB000F0203E9EC2CFCEF33FFEE33FED1
:06021600ED33FD0203C1FF
:10021C000203E9EC5D046005E8590470030203DF96
:10022C001203AA580460F6EC4860F2EC7004FDFE70
:10023C00FF22C860DB2481C85009C39860025006B5
:10024C000203E69850CAF582E9294B4A7005AB8245
:10025C000203D575F0007C1A7880C3EF9BEE9AED03
:10026C0099400DC3EF9BFFEE9AFEED99FDE842F02D
:10027C00DC23ACF0D0E0FFD0E0FED0E0FDAB822080
:10028C00E7101BEB60BAEC2CFCEF33FFEE33FEED0A
:10029C0033FD0203C1E803F830E705C0F075F00048
:1002AC00EF2FFFEE33FEED33FD40B830E7C280AAEE
:1002BC0074F8CC6480CCC86480C8F58204604FC3E9
:1002CC00EB9FF5F0EA9E42F0E99D42F0E89C45F088
:1002DC00603C501DE5825FFFE582D313CB5BCBF412
:1002EC002B5582FB50280ABA002409B9002008803B
:1002FC001DE5825BFBE582D313CF5FCFF4C3132FD5
:10030C005582FF50090EBE00050DBD00010CC3EB5C
:10031C009FF5F0EA9E42F0E99D42F0E89C45F060C2
:09032C0007CC4820E701B3EC22E4
:1003350075F020800E75F010800575F0087D007E43
:10034500007F003392D530D5031204C3EC3340103F
:10035500EF33FFEE33FEED33FDEC33FCD5F0ED224C
:0E036500E5F0247EA2D513CC92E7CDCEFF2288
:10037300EDD2E7CD33EC3392D524814006E4FFFE82
:10038300FDFC22FCE4CFCECDCC24E0501174FF80E1
:10039300EDC3CC13CCCD13CDCE13CECF13CF04707E
:0703A300F030D5DE0204C3B7
:1003AA00E9D2E7C933E833F892D5EDD2E7CD33EC99
:0703BA0033FC5002B2D52212
:1003C100EC30E7100FBF000C0EBE00080DBD00049D
:1003D1000BEB6014A2D5EB13FCED92E7FD2274FF49
:1003E100FCFDFEFF22E480F8A2D574FF13FC7D80A2
:0303F100E480EFB6
:03000000020B3FB1
:0C0B3F00787FE4F6D8FD75818E020B86ED
:1003F400BB010689828A83E0225002E722BBFE0207
:09040400E32289828A83E4932239
:10040D00BB010CE58229F582E5833AF583E02250A4
:10041D0006E92582F8E622BBFE06E92582F8E222EE
:0D042D00E58229F582E5833AF583E4932208
:10043A00BB010689828A83F0225002F722BBFE01A1
:02044A00F3229B
:10044C00F8BB010DE58229F582E5833AF583E8F0E6
:10045C00225006E92582C8F622BBFE05E92582C892
:02046C00F2227A
:10046E00BC000BBE0029EF8DF084FFADF022E4CC72
:10047E00F875F008EF2FFFEE33FEEC33FCEE9DEC3B
:10048E00984005FCEE9DFE0FD5F0E9E4CEFD22ED81
:10049E00F8F5F0EE8420D21CFEADF075F008EF2FCB
:1004AE00FFED33FD4007985006D5F0F222C398FDBC
:0504BE000FD5F0EA2259
:0E04C300C3E49FFFE49EFEE49DFDE49CFC224A
:100B4B00020F36E493A3F8E493A34003F68001F27B
:100B5B0008DFF48029E493A3F85407240CC8C333AB
:100B6B00C4540F4420C8834004F456800146F6DF7A
:100B7B00E4800B0102040810204080900C36E47EC8
:100B8B00019360BCA3FF543F30E509541FFEE4936F
:100B9B00A360010ECF54C025E060A840B8E493A336
:100BAB00FAE493A3F8E493A3C8C582C8CAC583CA61
:100BBB00F0A3C8C582C8CAC583CADFE9DEE780BE19
:010C8B000068
:00000001FF
