:1006D90008340000000000000000082300000000AA
:1006E90000000000082B0000000000000000013E8F
:1006F90000C100033F235950014C17C101022100D9
:0407090000014B00A0
:10095C003006057580108003E4F580E5A0541F4433
:07096C00A0F5A053A01F221B
:0A09AF007F0878347410F608DFFCAE
:0109B900221B
:1003C900E53C60030204B3753C011207F38F488EC4
:1003D900478D468C457B007A00793F1208B2E53E8D
:1003E900146057147003020494240260030204B3D6
:1003F9001209AF753411753501AF48AE47AD46AC3A
:100409004512026BEF75F00A8475F00A8485F0399C
:10041900EF75F00A8485F03AE4FFFE7D207C41AB5C
:1004290048AA47A946A84512000E12026B7C007D16
:100439000A1203668D3B752901222001241209AF96
:10044900753411753502E53FC4540FF537E53F544E
:100459000FF538753912E540C4540FF53AE5408077
:10046900221209AF753411753502E540C4540FF5F0
:1004790037E540540FF538753912E541C4540FF585
:100489003AE541540FF53BE4F529221209AF7534D9
:1004990011753503E54C75F00A8475F00A8485F009
:0B04A9003AE54C75F00A8485F03B2218
:1005EA00E54370777543011206668F44E542654418
:1005FA00FF5544F53DE544F45FF54A854442E53D3F
:10060A0024F3603E24FD60131460242405703D0524
:10061A003EE53E64037035F53E8031E53E64027086
:10062A002B054CE54CD394634022754C63801DE541
:10063A003EB40218154CE54CC3940A500F754C0A87
:10064A00800AA200B39200C20612095CE542B41104
:0C065A0008E53EB40103D20122C20122D7
:10073300E533703E753301200023C204752C01ACF0
:100743004CE4120237AB48AA47A946A8451201B4A4
:1007530060064004D2068002C20602095CE4F52C5E
:10076300E540700EE541700AD202D20612095C75AB
:030773002B012235
:03000B000204B438
:1004B400C0E0C0F0C083C082C0D075D000C000C00E
:1004C40001C002C003C004C005C006C007053CE566
:1004D4003CB46403753C000543E543B40A03754327
:1004E400000533E533B40A037533000549E549B41F
:1004F4000803754900742B2549F8E6FD7C00AF49D3
:100504001207B874342549F8E6FFE549FD7C002458
:1005140023F8E6FB7A001207763002230522E5224F
:1005240070020521FFAE21BE1315BF8812C20275E9
:100534002100752200C20612095CC204752B00D08A
:1005440007D006D005D004D003D002D001D000D00B
:0A055400D0D082D083D0F0D0E03286
:10097300538E7F5389F0758A18758CFCC28DD28C87
:05098300D2A9D2AF2251
:10090E001209731208F17B007A00793F12085C120B
:0A091E0003C91205EA12073380F541
:10099C00E4FEC297EF1392A3EFC313FFD2970EBEE0
:0209AC0008F051
:0109AE002226
:10098800C29300C29700D2930012099CAF051209C6
:040998009CC2932248
:10082800E4FDC29300C29700D2930012099CE4FF32
:10083800C297EDC313FD30A303430580D2970FBFC2
:1008480008EEC29300C29700D29700C2A300D2A3B9
:0308580000AF05E9
:01085B00227A
:10085C00E4FD7F8E1209881202ECFD7F8412098858
:10086C00900001120305FD7F82120988900002128C
:0F087C000305FD7F801209887D807F8E02098829
:1008B2007F85120828EF1203327F831208289000E6
:1008C20001EF1203447F81120828900002EF020315
:0108D20044E1
:040928007F057E00C9
:10092C00EF1FAA0670011E4A600BE4FDEDC3940C88
:05093C0050EE0D80F7F4
:010941002293
:0208D300A90773
:1008D500E4FBC294E9139294120928D294E9C31354
:0C08E500F90BBB08ED7F057E0002092C1A
:10094200E4FBC294ECC313FCD294309403430480BE
:090952001209280BBB08EBAF04ED
:01095B002279
:10088B00C206D2947F0C7E0012092CC2947F507E3C
:10089B000012092CD2947F0A7E0012092CA294928A
:0608AB0006120928A20656
:0108B1002224
:1007F30012088B7FCC1208D37F441208D312088BC4
:100803007FCC1208D37FBE1208D3120942A9071264
:100813000942EFAD01FCE4120232E4FBFA7980787D
:040823004112011766
:0108270022AE
:10070D00134DC0F9A4B0999282F880908883C6A148
:0F071D00868EFFC1BF08600102040810204080D3
:100776007580FFE5A0541F44E0F5A053A01FEB4A87
:10078600600B744D2FF8E6547FF5808007744D2F6B
:10079600F8E6F580E5A0541F44E0F5A053A01F74C9
:1007A600602DF8E6F580E5A0541F44C0F5A053A0DF
:0207B6001F2200
:1008F1007580FFE5A0541F4480F5A053A01FE4F5C7
:0D09010080E5A0541F44A0F5A053A01F22C4
:10066600E4FFC2C4D2C2D2B5D2B420B3027F042002
:10067600B2027F0520B1027F0620B0027F07D2C4F6
:10068600C2C2D2B5D2B420B3027F0820B2027F091B
:1006960020B1027F0A20B0027F0BD2C4D2C2C2B5FB
:1006A600D2B420B3027F0C20B2027F0D20B1027FAC
:1006B6000E20B0027F0FD2C4D2C2D2B5C2B420B3CC
:1006C600027F1020B2027F1120B1027F1220B002F9
:0206D6007F1390
:0106D80022FF
:06072C000108000109FFB5
:1007B800ED4C600F7401A807088002C333D8FC42CF
:1007C80008800E7401A807088002C333D8FCF452CD
:1007D80008E50865096013E508F4F580E5A0541FED
:0A07E8004480F5A053A01F85080906
:0107F20022E4
:10000E00EC4D6011E8497017ED33EC3304600DE4EC
:10001E00FCFFFEFD22E933E8330470F80202D7122A
:10002E0002A258046009E4CC24815006285009022B
:10003E0002E12840030202DEC0E0EB4A7044B980C0
:10004E0006D0E0FB0202CDEF4E701CBD8008EBFF28
:10005E00EAFEE9FD80EBE98DF0A4FEE5F00200F783
:10006E00E9CDF9EAFEEBFFEF89F0A4FCE5F0CE89CD
:10007E00F0A42EFFE435F0CD89F0A42DFEE435F08A
:10008E008067EF4E7005BD80D780C3EF8BF0A4ACB8
:10009E00F0EE8BF0A42CFCE435F0F8EF8AF0A42CF3
:1000AE00E5F038FCE433CB8DF0A42CFCE5F03BF806
:1000BE00EE8AF0A42CFCE5F038F8E433CF89F0A4F6
:1000CE002CFCE5F038CF3400CE89F0A42FFFE5F0FC
:1000DE003EFEE433C98DF0A42EFEE5F039CD8AF054
:1000EE00A42FFFE5F03EFEE43DFD33D0E0FB5007CC
:1000FE000BBB000F0202E1EC2CFCEF33FFEE33FEE4
:06010E00ED33FD0202B911
:100114000202E1EC5D046005E8590470030202D7B1
:100124001202A2580460F6EC4860F2EC7004FDFE82
:10013400FF22C860DB2481C85009C39860025006BE
:100144000202DE9850CAF582E9294B4A7005AB8257
:100154000202CD75F0007C1A7880C3EF9BEE9AED15
:1001640099400DC3EF9BFFEE9AFEED99FDE842F036
:10017400DC23ACF0D0E0FFD0E0FED0E0FDAB822089
:10018400E7101BEB60BAEC2CFCEF33FFEE33FEED13
:1001940033FD0202B9E803F830E705C0F075F0005A
:1001A400EF2FFFEE33FEED33FD40B830E7C280AAF7
:1001B40074F8CC6480CCC86480C8F58204604FC3F2
:1001C400EB9FF5F0EA9E42F0E99D42F0E89C45F091
:1001D400603C501DE5825FFFE582D313CB5BCBF41B
:1001E4002B5582FB50280ABA002409B90020088044
:1001F4001DE5825BFBE582D313CF5FCFF4C3132FDE
:100204005582FF50090EBE00050DBD00010CC3EB65
:100214009FF5F0EA9E42F0E99D42F0E89C45F060CB
:0902240007CC4820E701B3EC22ED
:10022D0075F020800E75F010800575F0087D007E4C
:10023D00007F003392D530D5031203BBEC33401051
:10024D00EF33FFEE33FEED33FDEC33FCD5F0ED2255
:0E025D00E5F0247EA2D513CC92E7CDCEFF2291
:10026B00EDD2E7CD33EC3392D524814006E4FFFE8B
:10027B00FDFC22FCE4CFCECDCC24E0501174FF80EA
:10028B00EDC3CC13CCCD13CDCE13CECF13CF047087
:07029B00F030D5DE0203BBC9
:1002A200E9D2E7C933E833F892D5EDD2E7CD33ECA2
:0702B20033FC5002B2D5221B
:1002B900EC30E7100FBF000C0EBE00080DBD0004A6
:1002C9000BEB6014A2D5EB13FCED92E7FD2274FF52
:1002D900FCFDFEFF22E480F8A2D574FF13FC7D80AB
:0302E900E480EFBF
:0300000002055E98
:0C055E00787FE4F6D8FD7581670205A5E2
:1002EC00BB010689828A83E0225002E722BBFE0210
:0902FC00E32289828A83E4932243
:10030500BB010CE58229F582E5833AF583E02250AD
:1003150006E92582F8E622BBFE06E92582F8E222F7
:0D032500E58229F582E5833AF583E4932211
:10033200BB010689828A83F0225002F722BBFE01AA
:02034200F322A4
:10034400F8BB010DE58229F582E5833AF583E8F0EF
:10035400225006E92582C8F622BBFE05E92582C89B
:02036400F22283
:10036600BC000BBE0029EF8DF084FFADF022E4CC7B
:10037600F875F008EF2FFFEE33FEEC33FCEE9DEC44
:10038600984005FCEE9DFE0FD5F0E9E4CEFD22ED8A
:10039600F8F5F0EE8420D21CFEADF075F008EF2FD4
:1003A600FFED33FD4007985006D5F0F222C398FDC5
:0503B6000FD5F0EA2262
:0E03BB00C3E49FFFE49EFEE49DFDE49CFC2253
:10056A0002090EE493A3F8E493A34003F68001F290
:10057A0008DFF48029E493A3F85407240CC8C33392
:10058A00C4540F4420C8834004F456800146F6DF61
:10059A00E4800B01020408102040809006D9E47E12
:1005AA00019360BCA3FF543F30E509541FFEE49356
:1005BA00A360010ECF54C025E060A840B8E493A31D
:1005CA00FAE493A3F8E493A3C8C582C8CAC583CA48
:1005DA00F0A3C8C582C8CAC583CADFE9DEE780BE00
:0107320000C6
:00000001FF
