:100D060008310A0A0A0A0A0A0A0A08230000000029
:100D16000000000008580000000000000000033D2D
:0B0D2600130303022B07D0025400004F
:0A0FB3007F087831740AF608DFFCAD
:010FBD002211
:100B0E00E54245416003020C0E754100754201122B
:100B1E000C9B8F43E5436540FF5543F53BE543F49E
:100B2E005FF54D854340E53B24FB602624FD604286
:100B3E00147003020BC924056003020C0E120FB3CE
:100B4E00C201C200053CE53C64046003020C0EF5D4
:100B5E003C22E53CB40109120FB3A201B39201226B
:100B6E00E53C64036003020C0E120FB3A200B392B5
:100B7E000022E53C64016003020C0E20011E74E8A5
:100B8E00252CF52C7403352BF52BD3E52C9428E569
:100B9E002B9423406B752B23752C282274642555BA
:100BAE00F555E43554F554D3E5559484E5546480F5
:100BBE009483404C75540375558422E53CB4014032
:100BCE0020011E7418252CF52C74FC352BF52BC327
:100BDE00E52C94E8E52B94035026752B03752CE831
:100BEE0022749C2555F55574FF3554F554C3E555BF
:100BFE00947CE5546480947C50067554FC75557C49
:010C0E0022C3
:1005EB00E53A45396003020A05753900753A01E5AC
:1005FB003C1470030207341470030207CA1470030F
:10060B000207F6240360030208CE75310EAF30AE3D
:10061B002FAD2EAC2DEC33501875320A75330A758D
:10062B00340A75350A75360A753710753810020895
:10063B00CEE47F0F7E27FDFCAB30AA2FA92EA82D71
:10064B00D31205074021E47B107A27F9F8AF30AEBF
:10065B002FAD2EAC2D120D9AE47B0AFAF9F8120D80
:10066B009AAF038F34800375340AE47FE77E03FD72
:10067B00FCAB30AA2FA92EA82DD31205074021E4DD
:10068B007BE87A03F9F8AF30AE2FAD2EAC2D120DFF
:10069B009AE47B0AFAF9F8120D9AAF038F358003AF
:1006AB0075350AE47F63FEFDFCAB30AA2FA92EA89B
:1006BB002DD31205074020E47B64FAF9F8AF30AE76
:1006CB002FAD2EAC2D120D9AE47B0AFAF9F8120D10
:1006DB009AAF038F36800375360AE47F09FEFDFC63
:1006EB00AB30AA2FA92EA82DD31205074020E47BEF
:1006FB000AFAF9F8AF30AE2FAD2EAC2D120D9AE4ED
:10070B007B0AFAF9F8120D9AAF038F37800375370E
:10071B000AE47B0AFAF9F8AF30AE2FAD2EAC2D12EE
:10072B000D9AAF038F380208CE75310C2001467538
:10073B003201AE2BAF2C7C037DE812046E7C007D66
:10074B000A12046E8D35AE2BAF2C7C007D64120427
:10075B006E7C007D0A12046E8D36AE2BAF2C7C00A6
:10076B007D0A12046E7C007D0A12046E8D37AE2B4F
:10077B00AF2C020896753202C3E554648094805006
:10078B000575350B800375350AE55545546024C353
:10079B00E55464809480AE54AF5550067CFF7D9C2D
:1007AB0080047C007D641204C38F36E4F537F53882
:1007BB000208CE75360A75370AE4F5380208CEE51D
:1007CB003DC4540FF531E53D540FF53275330BE550
:1007DB003EC4540FF534E53E540FF53575360BE535
:1007EB003FC4540FF537E53F0208CA300003020837
:1007FB00A175310D75320ED3E553940FE552942745
:10080B004016AE52AF537C277D1012046E7C007DD8
:10081B000A12046E8D34800375340AD3E55394E7C2
:10082B00E55294034016AE52AF537C037DE812049D
:10083B006E7C007D0A12046E8D35800375350AD3EC
:10084B00E5539463E55294004016AE52AF537C00CF
:10085B007D6412046E7C007D0A12046E8D3680035B
:10086B0075360AD3E5539409E55294004016AE52FF
:10087B00AF537C007D0A12046E7C007D0A12046E5D
:10088B008D37800375370AAE52AF537C007D0A1249
:10089B00046E8D38802D75310D75320FE54FC454B4
:1008AB000FF533E54F540FF534E550C4540FF535C0
:1008BB00E550540FF536E551C4540FF537E5515457
:1008CB000FF5387B007A00793D120EA8AC2DEC3376
:1008DB005009E4F54BF54AF549F548AC2DEC33409E
:1008EB0020E47FF47E01FDFCAB30AA2FA92EA82DAE
:1008FB00D3120507500BE4F54BF54A754980754843
:10090B003FAE2BAF2CE4FCFDAB30AA2FA92EA82DAC
:10091B00D3120507400BE4F54BF54A7549A0754812
:10092B0040E47FF47E01FDFCAB30AA2FA92EA82D4D
:10093B00C3120507406AAE2BAF2CE4FCFDA82D12A9
:10094B000507505CE52C240CFDE52B34FEFCE41272
:10095B00033AA804A905AA06AB07E4FFFE7D807C39
:10096B004012021FC004C005C006C007E530240CAE
:10097B00FFE52F34FEFEE52E34FFFDE52D34FFFCA5
:10098B00120335D003D002D001D000120116E4FBC4
:10099B00FA7980783F1200258F4B8E4A8D498C480F
:1009AB00E4FFFE7D4C7C42AB4BAA4AA949A84812F6
:1009BB000116120373120F1AA202E433FFE53C7007
:1009CB00047E0180027E00EE5FF558E4FFFE7DA001
:1009DB007C40AB4BAA4AA949A8481202BC70047FC1
:1009EB000180027F00A202E4335F7006AC2DEC3372
:0B09FB0050047F0180027F008F592212
:010FBE002210
:03001B00020A06D0
:100A0600C0E0C0F0C083C082C0D075D000C000C0B6
:100A160001C002C003C004C005C006C0070542E508
:100A26004270020541640A45417004F541F54205EC
:100A36003AE53A70020539646445397004F539F5CA
:100A46003A054CE54CB40803754C007431254CF856
:100A5600E6FD7C007423254CF8E6FB7A00AF4C12C9
:100A66000D557458254CF8E6FD7C00AF4C120DDE92
:100A76000522E5227002052164E87004E52164037D
:100A86007038F521F522AF8CEFFEAD8AEDFFE48FCD
:100A9600478E46F545F544AE54EE3395E0FDFCE54C
:100AA600552547F530EE3546F52FED3545F52EEC57
:100AB6003544F52D758A00758C00AE52AF53E4FCB3
:100AC600FDAB30AA2FA92EA82DD3120507400F85FE
:100AD6002F52853053853D4F853E50853F51054EFB
:100AE600E54EB4C808754E00A202B39202D007D0F4
:100AF60006D005D004D003D002D001D000D0D0D08B
:080B060082D083D0F0D0E03270
:100F3400538EBF53890F758B18758DFCC28FD2AB3E
:050F4400D28ED2AF22A5
:100F7200538E7F5389F0438905E4F58AF58CC28D3F
:030F8200D28C22EC
:100EE600120F72120F347B007A00793D120E4D12EA
:0A0EF60005EB120B0E120FBE80F583
:100F8500E4FEC297EF1392A3EFC313FFD2970EBEF1
:020F950008F062
:010F97002237
:100F5E00C29300C29700D29300120F85AF05120FF5
:040F6E0085C2932283
:100E1900E4FDC29300C29700D29300120F85E4FF4C
:100E2900C297EDC313FD30A303430580D2970FBFCB
:100E390008EEC29300C29700D29700C2A300D2A3C2
:030E490000AF05F2
:010E4C002283
:100E4D00E4FD7F8E120F5E1203F4FD7F84120F5EA0
:100E5D0090000112040DFD7F82120F5E90000212B0
:0F0E6D00040DFD7F80120F5E7D807F8E020F5E71
:100EA8007F85120E19EF12043A7F83120E199000F3
:100EB80001EF12044C7F81120E19900002EF020418
:010EC8004CDD
:100C9B00E4FFC2C4D2C2D2B520B3027F0420B20299
:100CAB007F0520B1027F0620B0027F07D2C4C2C2EB
:100CBB00D2B520B3027F0820B2027F0920B1027F98
:100CCB000A20B0027F0BD2C4D2C2C2B520B3027FBE
:100CDB000C20B2027F0D20B1027F0E20B0027F0FDD
:100CEB00D2C4D2C2D2B520B3027F1020B2027F1180
:0A0CFB0020B1027F1220B0027F1327
:010D050022CB
:060D31000108000109FFAA
:100DDE00ED4C600F7401A807088002C333D8FC42A3
:100DEE0008800E7401A807088002C333D8FCF452A1
:100DFE0008E50865096013E508F4F580E5A0541FC1
:0A0E0E004480F5A053A01F850809D9
:010E180022B7
:100D37001160C0F9A4B0999282F88090FFBF8C89A6
:0D0D47008E88C7087101020408102040804A
:100D55007580FFE5A0541F44E0F5A053A01F7471F2
:100D65002FF8E6F580E5A0541F44C0F5A053A01F59
:100D750074602DF8E6F580E5A0541F44E0F5A05316
:100D8500A01FEB4A600353807FE5A0541F44E0F5A4
:050D9500A053A01F2285
:040F0000D2A07F05F7
:100F0400000000000000000000000000000000AE2F
:060F1400071FEE70EB2246
:0F0F9800D2A1120F00C2A17F05120F04C2A02226
:0C0FA700C2A1120F00D2A17F05020F04AE
:020E7C00AD07C0
:100E7E00E4FCC2A07F05120F04ED30E704D2A1807E
:100E8E0002C2A17F05120F04D2A0ED25E0FD7F0561
:090E9E00120F040CBC08DBC2A019
:010EA7002228
:100EC900E4FC120F00ED25E0FD30A103430501C24A
:0C0ED900A07F05120F040CBC08E8AF0558
:010EE50022EA
:030F4900120E7C09
:100F4C00120F00A2A1E433FDC2A07F05120F04AF63
:010F5C00058F
:010F5D002271
:10000300C2A0EF24FF92A17F05120F04120F00C2BA
:08001300A0D2A17F05020F0439
:100F1A00AB07120F987F90120F497F41120F49AF0A
:0A0F2A0003120E7C120F4C020FA7F9
:10001E000203DFE86480F8E933E83360110460F02E
:10002E00ED33EC337009E8FCE9FDEAFEEBFF220448
:10003E0060DED3EB9FEA9EE99DE8C2E78CF0C2F743
:10004E0095F0400CE8CCF8E9CDF9EACEFAEBCFFB0F
:10005E001203AA85D0F05804700320D5B3E80470BB
:10006E00075002B2D50203E992D5EC0460F7E4CC56
:10007E00C0E0C398F8603B94186008400DD0E0FBD8
:10008E000203C1E4FBFAC9FC8028E830E406E4C9A7
:10009E00FBE4CAFCE830E305E4C9CACBFCE854072C
:1000AE006010F8C3E913F9EA13FAEB13FBEC13FC37
:1000BE00D8F130F52FC3E49CFCEF9BFFEE9AFEEDDA
:1000CE0099FDD0E0FBEF4E4D4C701222DB03020384
:1000DE00E6EC2CFCEF33FFEE33FEED33FDED30E7B7
:1000EE00EB0203C1EF2BFFEE3AFEED39FDD0E0FB44
:1000FE0050130BBB00030203E9ED13FDEE13FEEFED
:08010E0013FFEC13FC0203C116
:10011600EC4D6011E8497017ED33EC3304600DE4E3
:10012600FCFFFEFD22E933E8330470F80203DF1218
:1001360003AA58046009E4CC248150062850090219
:1001460003E92840030203E6C0E0EB4A7044B980A5
:1001560006D0E0FB0203D5EF4E701CBD8008EBFF16
:10016600EAFEE9FD80EBE98DF0A4FEE5F00201FF71
:10017600E9CDF9EAFEEBFFEF89F0A4FCE5F0CE89C4
:10018600F0A42EFFE435F0CD89F0A42DFEE435F081
:100196008067EF4E7005BD80D780C3EF8BF0A4ACAF
:1001A600F0EE8BF0A42CFCE435F0F8EF8AF0A42CEA
:1001B600E5F038FCE433CB8DF0A42CFCE5F03BF8FD
:1001C600EE8AF0A42CFCE5F038F8E433CF89F0A4ED
:1001D6002CFCE5F038CF3400CE89F0A42FFFE5F0F3
:1001E6003EFEE433C98DF0A42EFEE5F039CD8AF04B
:1001F600A42FFFE5F03EFEE43DFD33D0E0FB5007C3
:100206000BBB000F0203E9EC2CFCEF33FFEE33FED1
:06021600ED33FD0203C1FF
:10021C000203E9EC5D046005E8590470030203DF96
:10022C001203AA580460F6EC4860F2EC7004FDFE70
:10023C00FF22C860DB2481C85009C39860025006B5
:10024C000203E69850CAF582E9294B4A7005AB8245
:10025C000203D575F0007C1A7880C3EF9BEE9AED03
:10026C0099400DC3EF9BFFEE9AFEED99FDE842F02D
:10027C00DC23ACF0D0E0FFD0E0FED0E0FDAB822080
:10028C00E7101BEB60BAEC2CFCEF33FFEE33FEED0A
:10029C0033FD0203C1E803F830E705C0F075F00048
:1002AC00EF2FFFEE33FEED33FD40B830E7C280AAEE
:1002BC0074F8CC6480CCC86480C8F58204604FC3E9
:1002CC00EB9FF5F0EA9E42F0E99D42F0E89C45F088
:1002DC00603C501DE5825FFFE582D313CB5BCBF412
:1002EC002B5582FB50280ABA002409B9002008803B
:1002FC001DE5825BFBE582D313CF5FCFF4C3132FD5
:10030C005582FF50090EBE00050DBD00010CC3EB5C
:10031C009FF5F0EA9E42F0E99D42F0E89C45F060C2
:09032C0007CC4820E701B3EC22E4
:1003350075F020800E75F010800575F0087D007E43
:10034500007F003392D530D5031204F9EC33401009
:10035500EF33FFEE33FEED33FDEC33FCD5F0ED224C
:0E036500E5F0247EA2D513CC92E7CDCEFF2288
:10037300EDD2E7CD33EC3392D524814006E4FFFE82
:10038300FDFC22FCE4CFCECDCC24E0501174FF80E1
:10039300EDC3CC13CCCD13CDCE13CECF13CF04707E
:0703A300F030D5DE0204F981
:1003AA00E9D2E7C933E833F892D5EDD2E7CD33EC99
:0703BA0033FC5002B2D52212
:1003C100EC30E7100FBF000C0EBE00080DBD00049D
:1003D1000BEB6014A2D5EB13FCED92E7FD2274FF49
:1003E100FCFDFEFF22E480F8A2D574FF13FC7D80A2
:0303F100E480EFB6
:03000000020C0FE0
:0C0C0F00787FE4F6D8FD758178020C5661
:1003F400BB010689828A83E0225002E722BBFE0207
:09040400E32289828A83E4932239
:10040D00BB010CE58229F582E5833AF583E02250A4
:10041D0006E92582F8E622BBFE06E92582F8E222EE
:0D042D00E58229F582E5833AF583E4932208
:10043A00BB010689828A83F0225002F722BBFE01A1
:02044A00F3229B
:10044C00F8BB010DE58229F582E5833AF583E8F0E6
:10045C00225006E92582C8F622BBFE05E92582C892
:02046C00F2227A
:10046E00BC000BBE0029EF8DF084FFADF022E4CC72
:10047E00F875F008EF2FFFEE33FEEC33FCEE9DEC3B
:10048E00984005FCEE9DFE0FD5F0E9E4CEFD22ED81
:10049E00F8F5F0EE8420D21CFEADF075F008EF2FCB
:1004AE00FFED33FD4007985006D5F0F222C398FDBC
:0504BE000FD5F0EA2259
:1004C300C2D5EC30E709B2D5E4C39DFDE49CFCEE54
:1004D30030E715B2D5E4C39FFFE49EFE12046EC35A
:1004E300E49DFDE49CFC800312046E30D507C3E455
:0604F3009FFFE49EFE22C3
:100D9A00C2D5E830E70FB2D5E4C39BFBE49AFAE484
:100DAA0099F9E498F8EC30E717B2D5120DD012058C
:100DBA0059E4C39BFBE49AFAE499F9E498F88003AE
:100DCA0012055930D50DE4C39FFFE49EFEE49DFD54
:040DDA00E49CFC2277
:0E04F900C3E49FFFE49EFEE49DFDE49CFC2214
:10050700EB9FF5F0EA9E42F0E99D42F0EC6480C86B
:0605170064809845F0220B
:100C1B00020EE6E493A3F8E493A34003F68001F2FB
:100C2B0008DFF48029E493A3F85407240CC8C333DA
:100C3B00C4540F4420C8834004F456800146F6DFA9
:100C4B00E4800B0102040810204080900D06E47E26
:100C5B00019360BCA3FF543F30E509541FFEE4939E
:100C6B00A360010ECF54C025E060A840B8E493A365
:100C7B00FAE493A3F8E493A3C8C582C8CAC583CA90
:100C8B00F0A3C8C582C8CAC583CADFE9DEE780BE48
:010D5400009E
:10051D0075F008758200EF2FFFEE33FECD33CDCC95
:10052D0033CCC58233C5829BED9AEC99E582984018
:10053D000CF582EE9BFEED9AFDEC99FC0FD5F0D6F5
:10054D00E4CEFBE4CDFAE4CCF9A88222B800C1B91F
:10055D000059BA002DEC8BF084CFCECDFCE5F0CB5D
:10056D00F97818EF2FFFEE33FEED33FDEC33FCEB96
:10057D0033FB10D703994004EB99FB0FD8E5E4F951
:10058D00FA227818EF2FFFEE33FEED33FDEC33FC3E
:10059D00C933C910D7059BE99A4007EC9BFCE99A32
:1005AD00F90FD8E0E4C9FAE4CCFB2275F010EF2F77
:1005BD00FFEE33FEED33FDCC33CCC833C810D70777
:1005CD009BEC9AE899400AED9BFDEC9AFCE899F8B2
:0E05DD000FD5F0DAE4CDFBE4CCFAE4C8F92245
:00000001FF
