:1004BB0008130A0A0A0A0A0A0A0A080B00000000B3
:1004CB0000000000083A00000000000000000308D4
:1004DB00235955014200092C000000000100BBBB51
:0604EB00BB0337221212D0
:1002A300E5294528600302033075280075290112EA
:1002B30004488F2AE52A6527FF552AF51DE52AF408
:1002C3005FF536852A27E51D24F1601504705EE588
:1002D30042C3940350570542E5426403704FF5420D
:1002E30022E542C39403504574032542F542E4F5E5
:1002F30035E54224FC60151460202402702F781E1B
:100303007C007D007B007A007908801A781E7C00CF
:100313007D007B007A00792C800C781E7C007D00A8
:0E0323007B007A0079377E007F091200DE220F
:10017E00E51C451B60030202A2751B00751C017B6A
:10018E00007A0079081206457B007A00793712064C
:10019E0066E54214604314700302022824026003D1
:1001AE0002025DE4F55974082559F8E6C4540FFFB0
:1001BE00E55975F003A42413F8A60774082559F819
:1001CE00E6540FFFE55975F003A42414F8A60705AD
:1001DE0059E559B403D002029CE4F559E53575F0A2
:1001EE0003A42559242CF8E6C4540FFFE55975F0E5
:1001FE0003A42413F8A607E53575F003A4255924A6
:10020E002CF8E6540FFFE55975F003A42414F8A654
:10021E00070559E559B403C48074E4F559743725BC
:10022E0059F8E6C4540FFFE55975F003A42413F8EA
:10023E00A60774372559F8E6540FFFE55975F003F4
:10024E00A42414F8A6070559E559B403D0803FE459
:10025E00F559E53575F003A42559241EF8E6C45466
:10026E000FFFE55975F003A42413F8A607E53575BD
:10027E00F003A42559241EF8E6540FFFE55975F036
:10028E0003A42414F8A6070559E559B403C4751838
:04029E000B75150BBC
:0102A2002239
:0100030022DA
:03000B000203BD30
:1003BD00C0E0C0F0C083C082C0D075D000C000C006
:1003CD0001C002C003C004C005C006C0070529E571
:1003DD002970020528640A45287004F528F52905B9
:1003ED001CE51C7002051B6464451B7004F51BF5B0
:1003FD001C052BE52BB40803752B007413252BF866
:10040D00E6FD7C00740B252BF8E6FB7A00AF2B1272
:10041D000510743A252BF8E6FD7C00AF2B1205551F
:10042D00D007D006D005D004D003D002D001D00023
:0B043D00D0D0D082D083D0F0D0E032CD
:1006A400538E7F5389F0758A18758CFCC28DD28C59
:0506B400D2A9D2AF2223
:100622001206871206A47B007A0079081205C47BA1
:10063200007A0079371205F312017E1202A312002A
:030642000380F53D
:100687007580FFE5A0541F4480F5A053A01FE4F533
:0D06970080E5A0541F44A0F5A053A01F2231
:0604F1000157000158FF55
:10055500ED4C600F7401A807088002C333D8FC4234
:1005650057800E7401A807088002C333D8FCF452E3
:1005750057E55765586013E557F4F580E5A0541F16
:0A0585004480F5A053A01F855758CD
:01058F002249
:10044800E4FFC2C4D2C2D2B5D2B420B3027F042022
:10045800B2027F0520B1027F0620B0027F07D2C416
:10046800C2C2D2B5D2B420B3027F0820B2027F093B
:1004780020B1027F0A20B0027F0BD2C4D2C2C2B51B
:10048800D2B420B3027F0C20B2027F0D20B1027FCC
:100498000E20B0027F0FD2C4D2C2D2B5C2B420B3EC
:1004A800027F1020B2027F1120B1027F1220B00219
:0204B8007F13B0
:0104BA00221F
:1004F7000C43C0F9A4B0999282F88090FFBF084FCF
:080507000102040810204080ED
:100510007580FFE5A0541F44E0F5A053A01F744F61
:100520002FF8E6F580E5A0541F44C0F5A053A01FA6
:1005300074432DF8E6F580E5A0541F44E0F5A05380
:10054000A01FEB4A600353807FE5A0541F44E0F5F1
:05055000A053A01F22D2
:1006CD00E4FEC297EF1392A3EFC313FFD2970EBEB2
:0206DD0008F023
:0106DF0022F8
:1006B900C29300C29700D293001206CDAF0512066D
:0406C900CDC29322E9
:10059000E4FDC29300C29700D293001206CDE4FF9F
:1005A000C297EDC313FD30A303430580D2970FBF5D
:1005B00008EEC29300C29700D29700C2A300D2A354
:0305C00000AF0584
:0105C3002215
:1005C400E4FD7F8E1206B9120104FD7F841206B980
:1005D40090000112011DFD7F821206B990000212E3
:0F05E400011DFD7F801206B97D807F8E0206B952
:100645007F85120590EF12014A7F83120590900075
:1006550001EF12015C7F81120590900002EF02010B
:010665005C38
:1005F300E4FD7F8E1206B9120104FD7F8C1206B949
:1006030090000112011DFD7F881206B990000212AD
:0F061300011DFD7F861206B97D807F8E0206B91C
:100666007F8D120590EF12014A7F89120590900046
:1006760001EF12015C7F87120590900002EF0201E4
:010686005C17
:03000000020331C7
:0C033100787FE4F6D8FD7581590203784E
:10000E00E709F608DFFA8046E709F208DFFA803ED4
:10001E0088828C83E709F0A3DFFA8032E309F608C1
:10002E00DFFA8078E309F208DFFA807088828C8329
:10003E00E309F0A3DFFA806489828A83E0A3F608DD
:10004E00DFFA805889828A83E0A3F208DFFA804CB7
:10005E0080D280FA80C680D4806980F2803380108E
:10006E0080A680EA809A80A880DA80E280CA8033F7
:10007E0089828A83ECFAE493A3C8C582C8CCC5836F
:10008E00CCF0A3C8C582C8CCC583CCDFE9DEE7803F
:10009E000D89828A83E493A3F608DFF9ECFAA9F0BE
:1000AE00EDFB2289828A83ECFAE0A3C8C582C8CC14
:1000BE00C583CCF0A3C8C582C8CCC583CCDFEADE2D
:1000CE00E880DB89828A83E493A3F208DFF980CC8F
:1000DE0088F0EF60010E4E60C388F0ED2402B40488
:1000EE000050B9F582EB2402B4040050AF2323452F
:0600FE00822390005E73F6
:10010400BB010689828A83E0225002E722BBFE02F9
:09011400E32289828A83E493222C
:10011D00BB010CE58229F582E5833AF583E0225097
:10012D0006E92582F8E622BBFE06E92582F8E222E1
:0D013D00E58229F582E5833AF583E49322FB
:10014A00BB010689828A83F0225002F722BBFE0194
:02015A00F3228E
:10015C00F8BB010DE58229F582E5833AF583E8F0D9
:10016C00225006E92582C8F622BBFE05E92582C885
:02017C00F2226D
:10033D00020622E493A3F8E493A34003F68001F2AE
:10034D0008DFF48029E493A3F85407240CC8C333C1
:10035D00C4540F4420C8834004F456800146F6DF90
:10036D00E4800B01020408102040809004BBE47E61
:10037D00019360BCA3FF543F30E509541FFEE49385
:10038D00A360010ECF54C025E060A840B8E493A34C
:10039D00FAE493A3F8E493A3C8C582C8CAC583CA77
:1003AD00F0A3C8C582C8CAC583CADFE9DEE780BE2F
:01050F0000EB
:00000001FF
