:10090200082A0A0A0A0A0A0A0A0A08220000000039
:100912000000000008480000000000000000033B47
:0C092200235955013A0001321901421915
:10089100E540453F706A753F0075400112081E8FA3
:1008A10041E53E6541FF5541F539E541F45FF550BC
:1008B10085413EE53924FB604424FD601D14602D13
:1008C1002405703C053AE53AD394024003E4F53A35
:1008D100E53A6401602A85324222E53A64017020DA
:1008E1001532E532D394644017E4F53222E53AB487
:1008F100010E0532E532B4FF07753264226321012E
:0109010022D3
:1004F700E53445336003020704753300753401E5BD
:100507003A1460751470030205AE240260030206F4
:10051700E0752A0C752B10752C10752D10AF54AE85
:1005270053AD52AC51120363EF75F00A8475F00AAC
:100537008485F02EEF75F00A8485F02FE4FFFE7DA9
:10054700207C41AB54AA53A952A8511201061203A9
:10055700637C007D0A1204B38D30E4FFFE7DC87C06
:1005670042AB54AA53A952A8511201061203637C45
:10057700007D0A1204B30206DB752A11752B10756C
:100587002C10752D10752E10752F10E53275F00A89
:100597008475F00A8485F030E53275F00A8485F0B9
:1005A70031E4F5270206E0E5217041AC4212032F42
:1005B700AB54AA53A952A8511202AC500CE4F54609
:1005C700F545F544F543020685AC42E412032FAB2B
:1005D70054AA53A952A8511202AC60025003020652
:1005E70085E4F546F5457544A0020682E4FFFE7DE5
:1005F700A07C41AB54AA53A952A8511202AC500D8A
:10060700E4F546F54575448075433F8071E4FFFE88
:100617007DA07C41AB54AA53A952A8511202AC60E9
:100627003C403AE4FFFE7D207C42AB54AA53A952DA
:10063700A8511202AC50267F9A7E997D197C3EAB59
:1006470054AA53A952A851120106E4FBFAF978C03B
:100657001200158F468E458D448C438021E4FFFEA2
:100667007D207C42AB54AA53A952A8511202AC6018
:100677000D400BE4F546F545754480754340752AF2
:100687000A752B10752C10752D10752E10AF46AEF0
:1006970045AD44AC43120363EF75F00A8485F02F30
:1006A700E4FFFE7DC87C42AB46AA45A944A8431295
:1006B7000106120363AB07AA067C007D0A12045EDB
:1006C7007C007D0A12045E8D307C007D0AAF03AE8C
:1006D7000212045E8D317527017F667E667D487C38
:1006E70042AB46AA45A944A8431201061203631266
:0E06F7000C8C120A158F548E538D528C51228A
:100A7E00E52170047F0180027F008F48E53A700502
:100A8E007549018003E4F549E53AB40105754A015B
:100A9E008003E4F54AE53AB40204754B0122E4F50D
:020AAE004B22D9
:03000B00020705E4
:10070500C0E0C0F0C083C082C0D075D000C000C0BA
:1007150001C002C003C004C005C006C0070540E50E
:10072500407002053F640A453F7004F53FF54005FA
:1007350034E53470020533646445337004F533F5EC
:10074500340547E547B40803754700742A2547F87B
:10075500E6FD7C0074222547F8E6FB7A00AF4712D8
:100765000953AF477E0074482547F8E6FD7C001223
:1007750009DAD007D006D005D004D003D002D001C5
:0D078500D000D0D0D082D083D0F0D0E032B0
:100CA300538E7F5389F0758A18758CFCC28DD28C54
:050CB300D2A9D2AF221E
:100CDF00120BEC120CA31204F7120891120A7E8069
:010CEF00F50F
:10081E00E4FFC2C4D2C2D2B5D2B420B0027F072048
:10082E00B1027F0620B2027F0520B3027F04D2C43C
:10083E00C2C2D2B5D2B420B0027F0B20B1027F0A61
:10084E0020B2027F0920B3027F08D2C4D2C2C2B541
:10085E00D2B420B0027F0F20B1027F0E20B2027FF1
:10086E000D20B3027F0CD2C4D2C2D2B5C2B420B016
:10087E00027F1320B1027F1220B2027F1020B3023A
:02088E007F10D9
:010890002245
:06092E000112000113FF9D
:1009DA00ED4C600F7401A807088002C333D8FC42AB
:1009EA0012800E7401A807088002C333D8FCF4529F
:1009FA0012E51265136013E512F4F580E5A0541FA1
:0A0A0A004480F5A053A01F851213CD
:010A140022BF
:100934001255C0F9A4B0999282F880908883C6A118
:0E094400868EFF8C0867010204081020408098
:100953007580FFE5A0541F44E0F5A053A01F746702
:100963002FF8E6F580E5A0541F44C0F5A053A01F5F
:1009730074552DF8E6F580E5A0541F44E0F5A05327
:10098300A01FEB4A600353807FE5A0541F44E0F5AA
:05099300A053A01F228B
:100BEC007580FFE5A0541F4480F5A053A01FE4F5C9
:0D0BFC0080E5A0541F44A0F5A053A01F22C7
:040C2600D2A07F05D4
:100C2A00000000000000000000000000000000AE0C
:060C3A00071FEE70EB2223
:0F0CF000D2A1120C26C2A17F05120C2AC2A0228B
:0C0CFF00C2A1120C26D2A17F05020C2A13
:020B1100AD072E
:100B1300E4FCC2A07F05120C2AED30E704D2A180C9
:100B230002C2A17F05120C2AD2A0ED25E0FD7F05AC
:090B3300120C2A0CBC08DBC2A064
:010B3C002296
:100C0900E4FC120C26ED25E0FD30A103430501C2E9
:0C0C1900A07F05120C2A0CBC08E8AF05F7
:010C250022AC
:100B8900AB05120CF07FA0120B11120B9BAF0312D5
:020B99000B113E
:100B9B00120C26A2A1E433FDC2A07F05120C2AAFD2
:010BAB000544
:010BAC002226
:100C7400C2A0EF24FF92A17F05120C2A120C26C2F7
:080C8400A0D2A17F05020C2A99
:020B6400AB07DD
:100B6600120CF07F90120B90120CF07F91120B1169
:100B7600120B9B120C09AD077F01120C74120CFFAD
:020B8600AF05B9
:010B8800224A
:100C8C00AB07AA06120CF07F90120B11120B9B7F74
:070C9C0041120B90020CFF56
:100998008B088A09890A120B89120CF07FA1120BA5
:1009A80011120B9BAF0C150CEF6024120C09AB084D
:1009B800050AE50AAA097002050914F9EF12042AC2
:1009C800E50C6004E4FF80027F01120C7480D502FC
:0209D8000CFF12
:100AB0008B0D8A0E890F120B89AF111511EF601F74
:100AC000AB0D050FE50FAA0E7002050E14F9120307
:100AD000E4FF120B11120B9B7FC8120C2A80DA0262
:020AE0000CFF09
:100CCC00E4FEC297EF1392A3EFC313FFD2970EBEAD
:020CDC0008F01E
:010CDE0022F3
:100CB800C29300C29700D29300120CCCAF05120C5D
:040CC800CCC29322E5
:100A4A00E4FDC29300C29700D29300120CCCE4FFDB
:100A5A00C297EDC313FD30A303430580D2970FBF9E
:100A6A0008EEC29300C29700D29700C2A300D2A395
:030A7A0000AF05C5
:010A7D002256
:100AE200E4FD7F8E120CB81203E4FD7F84120CB871
:100AF2009000011203FDFD7F82120CB890000212D9
:0F0B020003FDFD7F80120CB87D807F8E020CB842
:100BAD007F85120A4AEF12042A7F83120A4A9000A7
:100BBD0001EF12043C7F81120A4A900002EF0204F9
:010BCD003CEB
:040C40007F057E00AE
:100C4400EF1FAA0670011E4A600BE4FDEDC3940C6D
:050C540050EE0D80F7D9
:010C59002278
:020BCE00A90775
:100BD000E4FBC294E9139294120C40D294E9C3133B
:0C0BE000F90BBB08ED7F057E00020C4401
:100C5A00E4FBC294ECC313FCD294309403430480A3
:090C6A00120C400BBB08EBAF04B7
:010C7300225E
:100B3D00C200D2947F0C7E00120C44C2947F507E72
:100B4D0000120C44D2947F0A7E00120C44A294929F
:060B5D0000120C40A20092
:010B6300226F
:100A1500120B3D7FCC120BCE7F44120BCE120B3D39
:100A25007FCC120BCE7FBE120BCE120C5AA9071229
:100A35000C5AEFAD01FCE412032AE4FBFA79807845
:040A45004112020F49
:010A4900228A
:10000E000203CFE86480F8E933E83360110460F04E
:10001E00ED33EC337009E8FCE9FDEAFEEBFF220458
:10002E0060DED3EB9FEA9EE99DE8C2E78CF0C2F753
:10003E0095F0400CE8CCF8E9CDF9EACEFAEBCFFB1F
:10004E0012039A85D0F05804700320D5B3E80470DB
:10005E00075002B2D50203D992D5EC0460F7E4CC76
:10006E00C0E0C398F8603B94186008400DD0E0FBE8
:10007E000203B1E4FBFAC9FC8028E830E406E4C9C7
:10008E00FBE4CAFCE830E305E4C9CACBFCE854073C
:10009E006010F8C3E913F9EA13FAEB13FBEC13FC47
:1000AE00D8F130F52FC3E49CFCEF9BFFEE9AFEEDEA
:1000BE0099FDD0E0FBEF4E4D4C701222DB03020394
:1000CE00D6EC2CFCEF33FFEE33FEED33FDED30E7D7
:1000DE00EB0203B1EF2BFFEE3AFEED39FDD0E0FB64
:1000EE0050130BBB00030203D9ED13FDEE13FEEF0D
:0800FE0013FFEC13FC0203B137
:10010600EC4D6011E8497017ED33EC3304600DE4F3
:10011600FCFFFEFD22E933E8330470F80203CF1238
:10012600039A58046009E4CC248150062850090239
:1001360003D92840030203D6C0E0EB4A7044B980D5
:1001460006D0E0FB0203C5EF4E701CBD8008EBFF36
:10015600EAFEE9FD80EBE98DF0A4FEE5F00201EF91
:10016600E9CDF9EAFEEBFFEF89F0A4FCE5F0CE89D4
:10017600F0A42EFFE435F0CD89F0A42DFEE435F091
:100186008067EF4E7005BD80D780C3EF8BF0A4ACBF
:10019600F0EE8BF0A42CFCE435F0F8EF8AF0A42CFA
:1001A600E5F038FCE433CB8DF0A42CFCE5F03BF80D
:1001B600EE8AF0A42CFCE5F038F8E433CF89F0A4FD
:1001C6002CFCE5F038CF3400CE89F0A42FFFE5F003
:1001D6003EFEE433C98DF0A42EFEE5F039CD8AF05B
:1001E600A42FFFE5F03EFEE43DFD33D0E0FB5007D3
:1001F6000BBB000F0203D9EC2CFCEF33FFEE33FEF2
:06020600ED33FD0203B11F
:10020C000203D9EC5D046005E8590470030203CFC6
:10021C0012039A580460F6EC4860F2EC7004FDFE90
:10022C00FF22C860DB2481C85009C39860025006C5
:10023C000203D69850CAF582E9294B4A7005AB8265
:10024C000203C575F0007C1A7880C3EF9BEE9AED23
:10025C0099400DC3EF9BFFEE9AFEED99FDE842F03D
:10026C00DC23ACF0D0E0FFD0E0FED0E0FDAB822090
:10027C00E7101BEB60BAEC2CFCEF33FFEE33FEED1A
:10028C0033FD0203B1E803F830E705C0F075F00068
:10029C00EF2FFFEE33FEED33FD40B830E7C280AAFE
:1002AC0074F8CC6480CCC86480C8F58204604FC3F9
:1002BC00EB9FF5F0EA9E42F0E99D42F0E89C45F098
:1002CC00603C501DE5825FFFE582D313CB5BCBF422
:1002DC002B5582FB50280ABA002409B9002008804B
:1002EC001DE5825BFBE582D313CF5FCFF4C3132FE5
:1002FC005582FF50090EBE00050DBD00010CC3EB6D
:10030C009FF5F0EA9E42F0E99D42F0E89C45F060D2
:09031C0007CC4820E701B3EC22F4
:1003250075F020800E75F010800575F0087D007E53
:10033500007F003392D530D5031204E9EC33401029
:10034500EF33FFEE33FEED33FDEC33FCD5F0ED225C
:0E035500E5F0247EA2D513CC92E7CDCEFF2298
:10036300EDD2E7CD33EC3392D524814006E4FFFE92
:10037300FDFC22FCE4CFCECDCC24E0501174FF80F1
:10038300EDC3CC13CCCD13CDCE13CECF13CF04708E
:07039300F030D5DE0204E9A1
:10039A00E9D2E7C933E833F892D5EDD2E7CD33ECA9
:0703AA0033FC5002B2D52222
:1003B100EC30E7100FBF000C0EBE00080DBD0004AD
:1003C1000BEB6014A2D5EB13FCED92E7FD2274FF59
:1003D100FCFDFEFF22E480F8A2D574FF13FC7D80B2
:0303E100E480EFC6
:0300000002079262
:0C079200787FE4F6D8FD75816E0207D96F
:1003E400BB010689828A83E0225002E722BBFE0217
:0903F400E32289828A83E493224A
:1003FD00BB010CE58229F582E5833AF583E02250B5
:10040D0006E92582F8E622BBFE06E92582F8E222FE
:0D041D00E58229F582E5833AF583E4932218
:10042A00BB010689828A83F0225002F722BBFE01B1
:02043A00F322AB
:10043C00F8BB010DE58229F582E5833AF583E8F0F6
:10044C00225006E92582C8F622BBFE05E92582C8A2
:02045C00F2228A
:10045E00BC000BBE0029EF8DF084FFADF022E4CC82
:10046E00F875F008EF2FFFEE33FEEC33FCEE9DEC4B
:10047E00984005FCEE9DFE0FD5F0E9E4CEFD22ED91
:10048E00F8F5F0EE8420D21CFEADF075F008EF2FDB
:10049E00FFED33FD4007985006D5F0F222C398FDCC
:0504AE000FD5F0EA2269
:1004B300C2D5EC30E709B2D5E4C39DFDE49CFCEE64
:1004C30030E715B2D5E4C39FFFE49EFE12045EC37A
:1004D300E49DFDE49CFC800312045E30D507C3E475
:0604E3009FFFE49EFE22D3
:0E04E900C3E49FFFE49EFEE49DFDE49CFC2224
:10079E00020CDFE493A3F8E493A34003F68001F286
:1007AE0008DFF48029E493A3F85407240CC8C3335C
:1007BE00C4540F4420C8834004F456800146F6DF2B
:1007CE00E4800B0102040810204080900902E47EB0
:1007DE00019360BCA3FF543F30E509541FFEE49320
:1007EE00A360010ECF54C025E060A840B8E493A3E7
:1007FE00FAE493A3F8E493A3C8C582C8CAC583CA12
:10080E00F0A3C8C582C8CAC583CADFE9DEE780BEC9
:0109520000A4
:00000001FF
