:10020400010801010B010109FE040D7EBDDBE701BC
:020214000A00DE
:100003001201EE8F12E5126511FF5512F50CE51280
:10001300F45FF51385121124FE600F146011146050
:100023001C24037024750801801FE4F508801A0559
:100033000BE50BD394044011750B01800C150BE5F4
:100043000BC394015003750B04E508B401B2E50B2F
:1000530024FE602314603A146058240370A28509B7
:10006300907FF47E011201D2AF097801EF0880017D
:1000730023D8FDF50980898509907FF47E0112015B
:10008300D2AF097801EF08800103D8FDF50902001A
:1000930003740D250AF8E6F5907FF47E011201D270
:1000A300050AE50AD394035003020003E4F50A02A8
:1000B3000003740D250AF8E6F5907FF47E01120122
:1000C300D2150AE50AF46003020003750A0302006D
:0100D3000329
:1001EE00E4FF20B4010F20B5027F0220B6027F0388
:0501FE0020B7027F04A0
:0102030022D8
:0A01D200EF1FAC0670011E4C600E1A
:0C01DC007514027515EFD515FDD514FA49
:0601E80080E8E4FEFF22A6
:10016000E4FFC2B4D2B5D2B6D2B720B0010F20B1ED
:10017000027F0520B2027F0920B3027F0DD2B4C2F4
:10018000B5D2B6D2B720B0027F0220B1027F0620DE
:10019000B2027F0A20B3027F0ED2B4D2B5C2B6D269
:1001A000B720B0027F0320B1027F0720B2027F0B8D
:1001B00020B3027F0FD2B4D2B5D2B6C2B720B002FC
:1001C0007F0420B1027F0820B2027F0C20B3027F9F
:0101D000101E
:0101D100220B
:030000000200D427
:0C00D400787FE4F6D8FD75811502011B51
:1000E000020003E493A3F8E493A34003F68001F233
:1000F00008DFF48029E493A3F85407240CC8C33321
:10010000C4540F4420C8834004F456800146F6DFEF
:10011000E4800B0102040810204080900204E47E79
:10012000019360BCA3FF543F30E509541FFEE493E4
:10013000A360010ECF54C025E060A840B8E493A3AB
:10014000FAE493A3F8E493A3C8C582C8CAC583CAD6
:10015000F0A3C8C582C8CAC583CADFE9DEE780BE8E
:0102160000E7
:00000001FF
