:070CA6006368616E676500E1
:10080D0008410A0A0A0A0A0A0A0A08270000000013
:10081D000000000008390000000000000000032265
:0A082D00235955014B00025F010240
:0A0C9B007F087841740AF608DFFCB8
:010CA500222C
:1007B900E565C3940A404CE4F5651209918F578E9B
:1007C900568D558C547B007A007922120AC512077E
:1007D9004E8F51E54C6551FF5551F549E551F45F8F
:1007E900F56185514CE54924FC7018054BE54BD35F
:1007F90094044003E4F54B7BFF7A0C79A6120A4F67
:04080900120C9B2210
:10036800C3E5639490E562940150030205B2E4F595
:1003780062F5637F01FE120A77AC07E41201D6E446
:10038800FBFA794C784212012F8F508E4F8D4E8C8C
:100398004D7F017E00120A77AC07E41201D6E4FB18
:1003A800FA794C784212012F8F508E4F8D4E8C4D1A
:1003B8001209207558008F59E54B14605C147003BE
:1003C80002044B1470030204AB14700302053F24AB
:1003D800046003020574AF57AE56AD55AC54120213
:1003E8000AEF75F00A8475F00A8485F041EF75F01C
:1003F8000A8485F042E4FFFE7D207C41AB57AA5673
:10040800A955A85412002612020A7C007D0A12037C
:10041800058D43852F48020574E522C4540FF54124
:10042800E522540FF542E523C4540FF543E5235460
:100438000FF544E524C4540FF545E524540FF5465B
:10044800020574AE52AF537C277D101203057C0061
:100458007D0A1203058D41AE52AF537C037DE8122D
:1004680003057C007D0A1203058D42AE52AF537C12
:10047800007D641203057C007D0A1203058D43AEDE
:1004880052AF537C007D0A1203057C007D0A1203DB
:10049800058D44AE52AF537C007D0A1203058D458D
:1004A800020574AF5DAE5CAD5BAC5A12020AEF7523
:1004B800F00A8485F041E4FFFE7DC87C42AB5DAA6A
:1004C8005CA95BA85A12002612020AAB07AA067C8E
:1004D800007D0A1203057C007D0A1203058D427C0B
:1004E800007D0AAF03AE021203058D43AF50AE4F35
:1004F800AD4EAC4D12020AEF75F00A8485F046E461
:10050800FFFE7DC87C42AB50AA4FA94EA84D1200F1
:100518002612020AAB07AA067C007D0A1203057C94
:10052800007D0A1203058D477C007D0AAF03AE02E9
:100538001203058D488035AE58AF597C007D641292
:1005480003057C007D0A1203058D41AE58AF597C26
:10055800007D0A1203057C007D0A1203058D42AE58
:1005680058AF597C007D0A1203058D437F037E0036
:10057800120A77AC07E41201D6E4FBFA794C784208
:1005880012012F8F5D8E5C8D5B8C5A7F037E00126B
:100598000A77AC07E41201D6E4FBFA794C784212E8
:0B05A800012F8F5D8E5C8D5B8C5A2252
:01001E0022BF
:03001B000205B328
:1005B300C0E0C0F0C083C082C0D075D000C000C00E
:1005C30001C002C003C004C005C006C0070565051D
:1005D30063E56370020562055EE55ED3940840033C
:1005E300755E00AF5E7E007441255EF8E6FD7C001B
:1005F3007427255EF8E6FB7A0012089B7B007A00DD
:1006030079391206D60526E52670020525FFAE25A3
:10061300BE0319BFE816752500752600AF8CEFAD34
:100623008AF552EDF553758A00758C00D007D00614
:10063300D005D004D003D002D001D000D0D0D082D6
:07064300D083D0F0D0E032BB
:100C4B00538E7F5389F0438905E4F58AF58CC28D69
:030C5B00D28C2216
:100C0D00538EBF53890F758B18758DFCC28FD28E85
:050C1D00D2ABD2AF22B2
:03002300020B329B
:100B3200C0E0C0D075D000C00030980B742F25647F
:0E0B4200F8A6990564C298D000D0D0D0E03259
:0E0C710000007F237E337DB6DDFEDEFCDFFA61
:010C7F002252
:100A2600120C4B120C0D120BF6120B0F120991122F
:100A36000C711209917B007A00792212095B120768
:090A4600B912001E12036880F5CC
:100B0F007580FFE5A0541F4480F5A0E5A0541FF5A4
:100B1F00A0E4F580E5A0541F44A0F5A0E5A0541F64
:020B2F00F5A02F
:010B310022A1
:10074E00E4FFC2C4D2C2D2B520B0027F0720B102EC
:10075E007F0620B2027F0520B3027F04D2C4C2C23C
:10076E00D2B520B0027F0B20B1027F0A20B2027FE9
:10077E000920B3027F08D2C4D2C2C2B520B0027F14
:10078E000F20B1027F0E20B2027F0D20B3027F0C2C
:10079E00D2C4D2C2D2B520B0027F1320B1027F12D2
:0A07AE0020B2027F1120B3027F1079
:0107B800221E
:06083700016E00016FFFDD
:1006D600E56E656F6071E4F56E9000011202A42567
:1006E600E0FF12028B4FFF9000021202A425E025C4
:1006F600E04FFF9000031202A433333354F84FFF48
:100706009000041202A4C454F04FFF900005120298
:10071600A4C43354E04FFF9000061202A4C433333E
:1007260054C04FFF9000071202A4C43333335480E1
:100736004FF56EF4F580E5A0541F4480F5A0E5A0C2
:07074600541FF5A0856E6F42
:01074D002289
:10083D00081301020408102040800B08C0F9A4B071
:07084D00999282F88090FFF0
:10089B007580FFE5A0541F44E0F5A0E5A0541FF5BB
:1008AB00A074132FF8E6F580E5A0541F44C0F5A003
:1008BB00E5A0541FF5A074082DF8E6F580EB4A600F
:1008CB000353807FE5A0541F44E0F5A0E5A0541F1F
:0208DB00F5A086
:0108DD0022F8
:100C5E00E4FEC297EF1392A3EFC313FFD2970EBE1B
:020C6E0008F08C
:010C70002261
:100C3700C29300C29700D29300120C5EAF05120C4C
:040C47005EC29322D4
:1009C600E4FDC29300C29700D29300120C5EE4FFCE
:1009D600C297EDC313FD30A303430580D2970FBF23
:1009E60008EEC29300C29700D29700C2A300D2A31A
:0309F60000AF054A
:0109F90022DB
:10095B00E4FD7F8E120C377D807F80120C371202E4
:10096B008BFD7F84120C379000011202A4FD7F8255
:10097B00120C379000021202A4FD7F80120C377DFF
:06098B00807F8E020C3794
:100AC500C2AF7F851209C6EF1202D17F831209C614
:100AD500900001EF1202E37F811209C6900002EF38
:060AE5001202E3D2AF2271
:040BA800D2A07F0A4E
:100BAC00000000000000000000000000000000AE8B
:060BBC00071FEE70EB22A2
:0F0C8000D2A1120BA8C2A17F0A120BACC2A022F4
:0C0C8F00C2A1120BA8D2A17F0A020BAC7C
:0209FA00AD0747
:1009FC00E4FCC2A07F0A120BACED30E704D2A1805C
:100A0C0002C2A17F0A120BACD2A0ED25E0FD7F0A39
:090A1C00120BAC0CBC08DBC2A0FB
:010A250022AE
:100B6E00E4FC120BA8ED25E0FD30A103430501C204
:0C0B7E00A07F0A120BAC0CBC08E8AF050D
:010B8A002248
:100AEB00AB05120C807FA01209FA120AFDAF03129C
:020AFB0009FAF6
:100AFD00120BA8A2A1E433FDC2A07F0A120BACAF6A
:010B0D0005E2
:010B0E0022C4
:10000300C2A0EF24FF92A17F0A120BAC120BA8C26D
:08001300A0D2A17F0A020BAC90
:040A7700AB07AA0619
:100A7B00120C807F90120AF2120C807F911209FAED
:100A8B00120AFD120B6EAD077F01120003120C8FC1
:020A9B00AF05A5
:010A9D002236
:100B8B00AB07120C807F901209FA120AFD7F4112FB
:0D0B9B0009FA120AFDAF031209FA020AFD61
:100855008B1B8A1C891D120AEBAF1F151FEF601F2A
:10086500AB1B051DE51DAA1C7002051C14F912021F
:100875008BFF1209FA120AFD7FC8120BAC80DA123F
:100885000C8F7FFF120BAC7FFF120BAC7FFF120B9F
:06089500AC7FFF020BAC7A
:1008DE008B668A678968120AEB120C807FA1120957
:1008EE00FA120AFDAF6A156AEF6024120B6EAB6640
:1008FE000568E568AA677002056714F9EF1202D160
:10090E00E56A6004E4FF80027F0112000380D502D5
:02091E000C8F3C
:040BC2007F057E002D
:100BC600EF1FAA0670011E4A600BE4FDEDC3940CEC
:050BD60050EE0D80F758
:010BDB0022F7
:020B5000A907F3
:100B5200E4FBC294E9139294120BC2D294E9C31338
:0C0B6200F90BBB08ED7F057E00020BC6FE
:100BDC00E4FBC294ECC313FCD29430940343048022
:090BEC00120BC20BBB08EBAF04B5
:010BF50022DD
:100A9E00C200D2947F0C7E00120BC6C2947F507E91
:100AAE0000120BC6D2947F0A7E00120BC6A294923D
:060ABE0000120BC2A200B1
:010AC400220F
:10099100120A9E7FCC120B507F44120B50120A9EFA
:1009A1007FCC120B507FBE120B50120BDCA9071229
:1009B1000BDCEFAD01FCE41201D1E4FBFA798078A4
:0409C1003D120026BD
:0109C500220F
:060CAD0000007F26DFFEBF
:010CB300221E
:100C2200C2AFE4FED290120CADC290120CAD0EBE59
:040C320008F2D2AF43
:010C3600229B
:10092000E4FDFCF5D9F5E9F5F9120C22D2DE30919F
:100930000330DFFAC2DE20DF1DAFF9EFADE9FCE4E2
:100940001201D17B967A43798B783C1200261202F1
:0A0950000AAC06AD0722C2DF7F00EB
:01095A00227A
:100BF600759850438E01538EFB75D7E675D6FF4325
:070C06008E10D2ACD2AF2228
:100A4F008B6B8A6C896DAB6BAA6CA96D12028B6074
:100A5F0016056DE56D7002056C14F912028BF59990
:080A6F003099FDC29980DF22DD
:10002600EC4D6011E8497017ED33EC3304600DE4D4
:10003600FCFFFEFD22E933E8330470F80202761273
:10004600024158046009E4CC248150062850090274
:10005600028028400302027DC0E0EB4A7044B9806A
:1000660006D0E0FB02026CEF4E701CBD8008EBFF71
:10007600EAFEE9FD80EBE98DF0A4FEE5F002010F52
:10008600E9CDF9EAFEEBFFEF89F0A4FCE5F0CE89B5
:10009600F0A42EFFE435F0CD89F0A42DFEE435F072
:1000A6008067EF4E7005BD80D780C3EF8BF0A4ACA0
:1000B600F0EE8BF0A42CFCE435F0F8EF8AF0A42CDB
:1000C600E5F038FCE433CB8DF0A42CFCE5F03BF8EE
:1000D600EE8AF0A42CFCE5F038F8E433CF89F0A4DE
:1000E6002CFCE5F038CF3400CE89F0A42FFFE5F0E4
:1000F6003EFEE433C98DF0A42EFEE5F039CD8AF03C
:10010600A42FFFE5F03EFEE43DFD33D0E0FB5007B3
:100116000BBB000F020280EC2CFCEF33FFEE33FE2C
:06012600ED33FD0202585A
:10012C00020280EC5D046005E8590470030202765B
:10013C00120241580460F6EC4860F2EC7004FDFECB
:10014C00FF22C860DB2481C85009C39860025006A6
:10015C0002027D9850CAF582E9294B4A7005AB82A0
:10016C0002026C75F0007C1A7880C3EF9BEE9AED5E
:10017C0099400DC3EF9BFFEE9AFEED99FDE842F01E
:10018C00DC23ACF0D0E0FFD0E0FED0E0FDAB822071
:10019C00E7101BEB60BAEC2CFCEF33FFEE33FEEDFB
:1001AC0033FD020258E803F830E705C0F075F000A3
:1001BC00EF2FFFEE33FEED33FD40B830E7C280AADF
:1001CC0075F020800E75F010800575F0087D007EAE
:1001DC00007F003392D530D50312035AEC33401014
:1001EC00EF33FFEE33FEED33FDEC33FCD5F0ED22B7
:0E01FC00E5F0247EA2D513CC92E7CDCEFF22F3
:10020A00EDD2E7CD33EC3392D524814006E4FFFEEC
:10021A00FDFC22FCE4CFCECDCC24E0501174FF804B
:10022A00EDC3CC13CCCD13CDCE13CECF13CF0470E8
:07023A00F030D5DE02035A8B
:10024100E9D2E7C933E833F892D5EDD2E7CD33EC03
:0702510033FC5002B2D5227C
:10025800EC30E7100FBF000C0EBE00080DBD000407
:100268000BEB6014A2D5EB13FCED92E7FD2274FFB3
:10027800FCFDFEFF22E480F8A2D574FF13FC7D800C
:03028800E480EF20
:0300000002064AAB
:0C064A00787FE4F6D8FD75816F02069100
:10028B00BB010689828A83E0225002E722BBFE0271
:09029B00E32289828A83E49322A4
:1002A400BB010CE58229F582E5833AF583E022500F
:1002B40006E92582F8E622BBFE06E92582F8E22259
:0D02C400E58229F582E5833AF583E4932273
:1002D100BB010689828A83F0225002F722BBFE010C
:0202E100F32206
:1002E300F8BB010DE58229F582E5833AF583E8F051
:1002F300225006E92582C8F622BBFE05E92582C8FD
:02030300F222E4
:10030500BC000BBE0029EF8DF084FFADF022E4CCDC
:10031500F875F008EF2FFFEE33FEEC33FCEE9DECA5
:10032500984005FCEE9DFE0FD5F0E9E4CEFD22EDEB
:10033500F8F5F0EE8420D21CFEADF075F008EF2F35
:10034500FFED33FD4007985006D5F0F222C398FD26
:050355000FD5F0EA22C3
:0E035A00C3E49FFFE49EFEE49DFDE49CFC22B4
:10065600020A26E493A3F8E493A34003F68001F28A
:1006660008DFF48029E493A3F85407240CC8C333A5
:10067600C4540F4420C8834004F456800146F6DF74
:10068600E4800B010204081020408090080DE47EEF
:10069600019360BCA3FF543F30E509541FFEE49369
:1006A600A360010ECF54C025E060A840B8E493A330
:1006B600FAE493A3F8E493A3C8C582C8CAC583CA5B
:1006C600F0A3C8C582C8CAC583CADFE9DEE780BE13
:0108540000A3
:00000001FF
