:1003C500062F0A0A0A0A0A0A014200033E173B37AA
:1003D5000223000006270001000100010239000088
:0403E50002250000ED
:10010B00E52E452D60030201F0752D00752E0112B1
:10011B0003538F38E5386537FF5538F536E538F436
:10012B005FF541853837E53624FD602724FE603FB7
:10013B001460731470030201E21470030201ED24C6
:10014B000760030201F0853E43853F4485404575BA
:10015B00420122E542640160030201F00526E52617
:10016B007002052564034525707BF525F52622E5F0
:10017B004264017070E525706CE526146012146002
:10018B001A240270600543E54364187058F5432246
:10019B000544E544643C704DF544220545E5456452
:1001AB003C7042F54522E54264017039E525703516
:1001BB00E526146011146018240270291543E543D9
:1001CB007023754317221544E544701975443B227F
:1001DB00D5451275453B2285433E85443F854540B9
:0601EB008000E4F5422251
:10000E00E5224521600302010A752100752201E5F2
:10001E004214604904600302010AE53E75F00A8449
:10002E0075F00A8485F02FE53E75F00A8485F03070
:10003E00E53F75F00A8475F00A8485F031E53F7569
:10004E00F00A8485F032E54075F00A8475F00A8472
:10005E0085F033E54075F00A8485F03422E543756A
:10006E00F00A8475F00A84AFF08F2FE54375F00A1D
:10007E0084AEF08E30E54475F00A8475F00A84ADD6
:10008E00F08D31E54475F00A84ACF08C32E545759F
:10009E00F00A8475F00A84A9F08933E54575F00AF3
:1000AE008485F034E5257054E52614601C14603008
:1000BE002402704830000280027F0A8F2F30000425
:1000CE00AF0680027F0A8F3022300004AF05800217
:1000DE007F0A8F31300004AF0480027F0A8F3222F4
:1000EE00300004AF0180027F0A8F3330000AE545ED
:0D00FE0075F00A84AFF080027F0A8F342273
:0100030022DA
:10042E005389F0438901758A18758CFCC28DD28C64
:05043E00D2A9D2AF229B
:03000B000201F1FE
:1001F100C0E0C0F0C083C082C0D075D000C000C0D4
:1002010001C002C003C004C005C006C007758A183A
:10021100758CFC052EE52E7002052D640A452D70A6
:1002210004F52DF52E0522E52270020521646445B1
:10023100217004F521F5220535E535B40603753540
:1002410000AF357E00742F2535F8E6FD7C0074275C
:100251002535F8E6FB7A001203FF0524E524700238
:100261000523FFAE23BE0327BFE8247523007524B1
:10027100000540E540B43C17754000053FE53FB43B
:100281003C0D753F00053EE53EB41803753E000583
:100291003AE53A70020539FFAE39BE010EBFF40BE3
:1002A100753900753A00A200B39200D007D006D08C
:1002B10005D004D003D002D001D000D0D0D082D05C
:0602C10083D0F0D0E03212
:0E04430012042E12010B12000E12000380F59F
:10035300E4FFC2B0D2B1D2B2D2B320B4010F20B500
:10036300027F0220B6027F0320B7027F04D2B0C20D
:10037300B1D2B2D2B320B4027F0520B5027F0620EA
:10038300B6027F0720B7027F08D2B0D2B1C2B2D281
:10039300B320B4027F0920B5027F0A20B6027F0B87
:1003A30020B7027F0CD2B0D2B1D2B2C2B320B40212
:1003B3007F0D20B5027F0E20B6027F0F20B7027F8C
:0103C3001029
:0103C4002216
:1003E9000613FEFDFBF7EFDF0B083F065B4F666D5B
:0503F9007D077F6F008D
:1003FF00E4F580D2A6C2A674132FF8E6F580D2A733
:10040F00C2A7EB64014A700B74082DF8E64480F51F
:0F041F0080800774082DF8E6F580D2A6C2A622C9
:030000000202C732
:0C02C700787FE4F6D8FD75814502030E37
:1002D300020443E493A3F8E493A34003F68001F2FA
:1002E30008DFF48029E493A3F85407240CC8C3332C
:1002F300C4540F4420C8834004F456800146F6DFFB
:10030300E4800B01020408102040809003C5E47EC2
:10031300019360BCA3FF543F30E509541FFEE493EF
:10032300A360010ECF54C025E060A840B8E493A3B6
:10033300FAE493A3F8E493A3C8C582C8CAC583CAE1
:10034300F0A3C8C582C8CAC583CADFE9DEE780BE99
:0103FE0000FE
:00000001FF
