:1008A700082A0A0A0A0A0A0A0A0A08220000000095
:1008B7000000000008410000000000000000013FA8
:0608C7000001211AC1002E
:0E0A5C0000007F237E337DB6DDFEDEFCDFFA78
:010A6A002269
:100A4900E4FF742A2FF8760A74222FF8E4F60FBF10
:020A590008F0A3
:010A5B002278
:10060E00E538453760030206A975370075380112C3
:10061E0008348F39E5396536FF5539F534E539F447
:10062E005FF540853936E53424FB606A24FD60179A
:10063E0014603C24057064120A490535E535D394DF
:10064E00024058E4F53522E535B4010E153FC3E5F9
:10065E003F6480941D5003753F9DE5356402703BE9
:10066E001521C3E5216480941D503075219D22E52E
:10067E0035B4010E053FD3E53F648094E340037526
:10068E003F63E535B402140521D3E521648094E37C
:0C069E00400975216322A200B3920022E3
:10046900E5334532600302060D753200753301E547
:1004790035146077147003020561240260030205D4
:10048900E9752A0CE4FFFE7D207C41AB3DAA3CA91D
:100499003BA83A1202AC5005752F0A8017AF3DAE42
:1004A9003CAD3BAC3A120363EF75F00A8475F00A70
:1004B9008485F02FAF3DAE3CAD3BAC3A120363EF00
:1004C90075F00A8485F030E4FFFE7D207C41AB3D68
:1004D900AA3CA93BA83A1201061203637C007D0AD3
:1004E9001204068D317528010205E9752A0DC3E547
:1004F9003F64809480400EE53F6480948A5006856D
:100509003F3175300AC3E53F6480948A401DE53F59
:1005190075F00A1203E4FF75F00A1203E485F0305E
:10052900E53F75F00A1203E485F031C3E53F6480C5
:1005390094805014E53F64809476400CE53FF404C0
:10054900F53175300B752F0AD3E53F6480947640F9
:10055900030205E9E53F8068752A0EC3E521648039
:100569009480400EE5216480948A50068521317576
:10057900300AC3E5216480948A401DE52175F00A9B
:100589001203E4FF75F00A1203E485F030E52175E2
:10059900F00A1203E485F031C3E5216480948050A8
:1005A90014E52164809476400CE521F404F5317555
:1005B900300B752F0AD3E521648094765022E5210A
:1005C900F404FF75F00A1203E4FE75F00A1203E45D
:1005D90085F030EF75F00A1203E485F031752F0BC1
:1005E90012096FC004C005C006C007AC3FEC120376
:1005F9002FD003D002D001D0001200158F3D8E3CC0
:050609008D3B8C3A223C
:1007C100E53570047F0180027F008F41E535B4017A
:1007D100047F0180027F008F42E535B402047F016E
:1007E10080027F008F432000047F0180027F008F01
:1007F100443000047F0180027F008F45300013AC3C
:1008010021EC12032FAB3DAA3CA93BA83A1202AC42
:100811004018200019AC21EC12032FAB3DAA3CA9D2
:100821003BA83A1202AC600640047F0180027F00BF
:030831008F4822CB
:03000B00020736B3
:10073600C0E0C0F0C083C082C0D075D000C000C089
:1007460001C002C003C004C005C006C0070538E5E5
:100756003870020537640A45377004F537F53805F1
:1007660033E53370020532646445327004F532F5C0
:1007760033053EE53EB40803753E00742A253EF86F
:10078600E6FD7C007422253EF8E6FB7A00AF3E12B9
:1007960008EF7441253EF8E6FD7C00AF3E120934B1
:1007A600D007D006D005D004D003D002D001D000A7
:0B07B600D0D0D082D083D0F0D0E03251
:100A3400538E7F5389F0758A18758CFCC28DD28CC5
:050A4400D2A9D2AF228F
:100A1D00120A3412096F120A5C12096F120469125C
:070A2D00060E1207C180F55F
:10083400E4FFC2C4D2C2D2B5D2B420B3027F042032
:10084400B2027F0520B1027F0620B0027F07D2C426
:10085400C2C2D2B5D2B420B3027F0820B2027F094B
:1008640020B1027F0A20B0027F0BD2C4D2C2C2B52B
:10087400D2B420B3027F0C20B2027F0D20B1027FDC
:100884000E20B0027F0FD2C4D2C2D2B5C2B420B3FC
:10089400027F1020B2027F1120B1027F1220B00229
:0208A4007F13C0
:0108A600222F
:0608CD00014900014AFF91
:10093400ED4C600F7401A807088002C333D8FC4251
:1009440049800E7401A807088002C333D8FCF4520E
:1009540049E549654A6013E549F4F580E5A0541F6B
:0A0964004480F5A053A01F85494A06
:01096E002266
:0600030000007F09DFFE92
:0100090022D4
:0409E9007F057E0008
:1009ED00EF1FAA0670011E4A600BE4FDEDC3940CC7
:0509FD0050EE0D80F733
:010A020022D1
:0209CB00A9077A
:1009CD00E4FBC294E91392941209E9D294E9C3139A
:0C09DD00F90BBB08ED7F057E000209ED60
:100A0300E4FBC294ECC313FCD294309403430480FC
:090A13001209E90BBB08EBAF046A
:010A1C0022B7
:1009A400C201D2947F0C7E001209EDC2947F507E66
:1009B400001209EDD2947F0A7E001209EDA29492EE
:0609C400011209E9A20185
:0109CA00220A
:10096F001209A47FCC1209CB7F441209CB1209A420
:10097F007FCC1209CB7FBE1209CB120A03A9071233
:10098F000A03EFAD01FCE412032AE4FBFA79807845
:04099F004112020FF0
:0109A3002231
:1008D3000F08C0F9A4B0999282F88090FFBFC68632
:0B08E300890817010204081020408063
:1008EF007580FFE5A0541F44E0F5A053A01F7417B7
:1008FF002FF8E6F580E5A0541F44C0F5A053A01FC4
:10090F0074082DF8E6F580E5A0541F44E0F5A053D8
:10091F00A01FEB4A600353807FE5A0541F44E0F50E
:05092F00A053A01F22EF
:10000E000203CFE86480F8E933E83360110460F04E
:10001E00ED33EC337009E8FCE9FDEAFEEBFF220458
:10002E0060DED3EB9FEA9EE99DE8C2E78CF0C2F753
:10003E0095F0400CE8CCF8E9CDF9EACEFAEBCFFB1F
:10004E0012039A85D0F05804700320D5B3E80470DB
:10005E00075002B2D50203D992D5EC0460F7E4CC76
:10006E00C0E0C398F8603B94186008400DD0E0FBE8
:10007E000203B1E4FBFAC9FC8028E830E406E4C9C7
:10008E00FBE4CAFCE830E305E4C9CACBFCE854073C
:10009E006010F8C3E913F9EA13FAEB13FBEC13FC47
:1000AE00D8F130F52FC3E49CFCEF9BFFEE9AFEEDEA
:1000BE0099FDD0E0FBEF4E4D4C701222DB03020394
:1000CE00D6EC2CFCEF33FFEE33FEED33FDED30E7D7
:1000DE00EB0203B1EF2BFFEE3AFEED39FDD0E0FB64
:1000EE0050130BBB00030203D9ED13FDEE13FEEF0D
:0800FE0013FFEC13FC0203B137
:10010600EC4D6011E8497017ED33EC3304600DE4F3
:10011600FCFFFEFD22E933E8330470F80203CF1238
:10012600039A58046009E4CC248150062850090239
:1001360003D92840030203D6C0E0EB4A7044B980D5
:1001460006D0E0FB0203C5EF4E701CBD8008EBFF36
:10015600EAFEE9FD80EBE98DF0A4FEE5F00201EF91
:10016600E9CDF9EAFEEBFFEF89F0A4FCE5F0CE89D4
:10017600F0A42EFFE435F0CD89F0A42DFEE435F091
:100186008067EF4E7005BD80D780C3EF8BF0A4ACBF
:10019600F0EE8BF0A42CFCE435F0F8EF8AF0A42CFA
:1001A600E5F038FCE433CB8DF0A42CFCE5F03BF80D
:1001B600EE8AF0A42CFCE5F038F8E433CF89F0A4FD
:1001C6002CFCE5F038CF3400CE89F0A42FFFE5F003
:1001D6003EFEE433C98DF0A42EFEE5F039CD8AF05B
:1001E600A42FFFE5F03EFEE43DFD33D0E0FB5007D3
:1001F6000BBB000F0203D9EC2CFCEF33FFEE33FEF2
:06020600ED33FD0203B11F
:10020C000203D9EC5D046005E8590470030203CFC6
:10021C0012039A580460F6EC4860F2EC7004FDFE90
:10022C00FF22C860DB2481C85009C39860025006C5
:10023C000203D69850CAF582E9294B4A7005AB8265
:10024C000203C575F0007C1A7880C3EF9BEE9AED23
:10025C0099400DC3EF9BFFEE9AFEED99FDE842F03D
:10026C00DC23ACF0D0E0FFD0E0FED0E0FDAB822090
:10027C00E7101BEB60BAEC2CFCEF33FFEE33FEED1A
:10028C0033FD0203B1E803F830E705C0F075F00068
:10029C00EF2FFFEE33FEED33FD40B830E7C280AAFE
:1002AC0074F8CC6480CCC86480C8F58204604FC3F9
:1002BC00EB9FF5F0EA9E42F0E99D42F0E89C45F098
:1002CC00603C501DE5825FFFE582D313CB5BCBF422
:1002DC002B5582FB50280ABA002409B9002008804B
:1002EC001DE5825BFBE582D313CF5FCFF4C3132FE5
:1002FC005582FF50090EBE00050DBD00010CC3EB6D
:10030C009FF5F0EA9E42F0E99D42F0E89C45F060D2
:09031C0007CC4820E701B3EC22F4
:1003250075F020800E75F010800575F0087D007E53
:10033500007F003392D530D50312045BEC334010B7
:10034500EF33FFEE33FEED33FDEC33FCD5F0ED225C
:0E035500E5F0247EA2D513CC92E7CDCEFF2298
:10036300EDD2E7CD33EC3392D524814006E4FFFE92
:10037300FDFC22FCE4CFCECDCC24E0501174FF80F1
:10038300EDC3CC13CCCD13CDCE13CECF13CF04708E
:07039300F030D5DE02045B2F
:10039A00E9D2E7C933E833F892D5EDD2E7CD33ECA9
:0703AA0033FC5002B2D52222
:1003B100EC30E7100FBF000C0EBE00080DBD0004AD
:1003C1000BEB6014A2D5EB13FCED92E7FD2274FF59
:1003D100FCFDFEFF22E480F8A2D574FF13FC7D80B2
:0303E100E480EFC6
:030000000206AA4B
:0C06AA00787FE4F6D8FD75814A0206F165
:1003E400C2D530F707B2D563F0FF05F030E70CB2A1
:1003F400D5F4048463F0FF05F080018430D502F461
:020404000422D0
:10040600BC000BBE0029EF8DF084FFADF022E4CCDA
:10041600F875F008EF2FFFEE33FEEC33FCEE9DECA3
:10042600984005FCEE9DFE0FD5F0E9E4CEFD22EDE9
:10043600F8F5F0EE8420D21CFEADF075F008EF2F33
:10044600FFED33FD4007985006D5F0F222C398FD24
:050456000FD5F0EA22C1
:0E045B00C3E49FFFE49EFEE49DFDE49CFC22B2
:1006B600020A1DE493A3F8E493A34003F68001F233
:1006C60008DFF48029E493A3F85407240CC8C33345
:1006D600C4540F4420C8834004F456800146F6DF14
:1006E600E4800B01020408102040809008A7E47EF5
:1006F600019360BCA3FF543F30E509541FFEE49309
:10070600A360010ECF54C025E060A840B8E493A3CF
:10071600FAE493A3F8E493A3C8C582C8CAC583CAFA
:10072600F0A3C8C582C8CAC583CADFE9DEE780BEB2
:0108EE000009
:00000001FF
