:1007010008210A0A0A0A0A0A0A0A084E0000000019
:0407110000000000E4
:1008ED00E52BC3940A401AE4F52B1204F78F2CE57F
:1008FD002A652CFF552CF529E52CF45FF52E852C5A
:02090D002A229C
:100A3F00C3784BE694F418E694014006E4784AF63E
:030A4F0008F62284
:010A8E002245
:10049D00784DE6FF6053783FE6C3940A404BE4780D
:1004AD004CF6783FF6EF6408702AFF74402FF8E69B
:1004BD0024D0FE74212FF8A60674402FF8E624D020
:1004CD00FEBE01047E0080027E01744E2FF8A6064A
:1004DD000FBF08D7784DE6FF7E007D007B007A00C8
:0904ED007940120273E4784DF627
:0104F60022E3
:10000E00538E7F5389F0758A18758CFCC28DD28CF5
:05001E00D2A9D2AF22BF
:03000B0002032BC2
:10032B00C0E0C0F0C083C082C0D075D000C000C098
:10033B0001C002C003C004C005C006C007052B786E
:10034B004B06E618700106052DE52DB40803752D37
:10035B00007421252DF8E6FFD39414400EEF24D41E
:10036B00FDE434FFFC7B017A00800C7421252DF811
:10037B00E6FD7C00E4FBFAAF2D1205F47B007A005E
:10038B00794E1203B4784CE6B40103783F06D007DC
:10039B00D006D005D004D003D002D001D000D0D0ED
:0903AB00D082D083D0F0D0E03202
:030023000204369E
:10043600C0E0C0F0C083C082C0D075D000C000C08C
:1004460001C002C003C004C005C006C00730982C16
:10045600784C7601783F7600784DE62440F8A699E8
:10046600784D06C298E6D3940A401176007E007F46
:100476000A7D007B007A007940120273D007D0060D
:10048600D005D004D003D002D001D000D0D0D08285
:07049600D083D0F0D0E0326A
:1009E8001208561209FF12000E1208ED120A3F12E1
:0709F8000A8E12049D80F23B
:0C0715000157000159FF0156000158FF78
:1003B400E47857F690000112020425E0FF1201EBE5
:1003C4004FFF90000212020425E025E04FFF900049
:1003D4000312020433333354F84FFF900004120223
:1003E40004C454F04FFF900005120204C43354E0D7
:1003F4004FFF900006120204C4333354C04FFF90E1
:100404000007120204C433333354804FFF7857F685
:100414007859E66F601B7857E6FFF4F580E5A05441
:100424001FFE4306808EA0E5A0541FF5A07859A6B0
:0104340007C0
:0104350022A4
:1009B8007580FFE5A0541FFF4307808FA0E5A05472
:0709C8001FF5A0E47859F6C9
:0109CF002205
:1007A6007856E63000054440F6800354BFF6785686
:1007B600E6FF78586660148F80E5A0541FFE430656
:0B07C600A08EA0E5A0541FF5A0A60720
:0107D1002205
:1007D2007856E63001054410F6800354EFF6785659
:1007E200E6FF78586660148F80E5A0541FFE43062A
:0B07F200A08EA0E5A0541FF5A0A607F4
:0107FD0022D9
:1007FE007856E63002054420F6800354DFF678562C
:10080E00E6FF78586660148F80E5A0541FFE4306FD
:0B081E00A08EA0E5A0541FF5A0A607C7
:0108290022AC
:100721000C08C0F9A4B0999282F88090FF8808144F
:080731000102040810204080C1
:1005F4007580FFE5A0541FFE4306E08EA0E5A054DD
:100604001FF5A074142FF8E6F580E5A0541FFE43EF
:1006140006C08EA0E5A0541FF5A074082DF8E6F5D9
:1006240080EB4A600353807FE5A0541FFE4306E03D
:080634008EA0E5A0541FF5A003
:01063C00229B
:1004F700E4FF538EEFC2C4D2C2D2B520B3027F0449
:1005070020B2027F0520B1027F0620B0027F07D20A
:10051700C4C2C2D2B520B3027F0820B2027F09202D
:10052700B1027F0A20B0027F0BD2C4D2C2C2B5206B
:10053700B3027F0C20B2027F0D20B1027F0E20B0E4
:09054700027F0F75B0FF438E1016
:010550002288
:100856007580FFE5A0541FFF4307808FA0E5A054D5
:100866001FF5A0E4F580E5A0541FFF4307A08FA065
:06087600E5A0541FF5A0EF
:01087C002259
:1009FF00759850438E01538EFB75D7E675D6FF431E
:070A0F008E10D2ACD2AF2221
:080003008F993099FDC299228A
:100A5200E4FEC297EF1392A3EFC313FFD2970EBE29
:020A620008F09A
:010A6400226F
:100A2B00C29300C29700D29300120A52AF05120A6A
:040A3B0052C29322EE
:10077200E4FDC29300C29700D29300120A52E4FF32
:10078200C297EDC313FD30A303430580D2970FBF79
:1007920008EEC29300C29700D29700C2A300D2A370
:0307A20000AF05A0
:0107A5002231
:060551008B1C8A1D891EAF
:10055700E4FD7F8E120A2B7D807F80120A2BE4FC3C
:10056700EC25E0FFC374849FFFAB1CAA1DA91E8C5A
:1005770082758300120204FE75F00A8475F00A84FE
:10058700ADF0EDC454F0FDEE75F00A84E5F04DFDD5
:0E059700120A2B0CBC03C97D807F8E020A2B3A
:0605A5008B2F8A30893122
:1005AB00C2AFE4F532E53225E0FFC374859FFF123D
:1005BB0007727533008F34E533C4F854F0C8E53453
:1005CB00C4540F4875F00AA4FFE534540F2FAB2F1A
:1005DB00AA30A9318532827583001202430532E5B8
:0805EB0032C3940340BFD2AFFC
:0105F30022E5
:04098400D2A07F0579
:10098800000000000000000000000000000000AEB1
:06099800071FEE70EB22C8
:0F0A6500D2A1120984C2A17F05120988C2A02262
:0C0A7400C2A1120984D2A17F05020988EA
:02082A00AD0718
:10082C00E4FCC2A07F05120988ED30E704D2A18058
:10083C0002C2A17F05120988D2A0ED25E0FD7F053B
:09084C001209880CBC08DBC2A0F3
:010855002280
:10092D00E4FC120984ED25E0FD30A103430501C26D
:0C093D00A07F051209880CBC08E8AF057B
:01094900228B
:1008C900AB05120A657FA012082A1208DBAF0312D2
:0208D900082AEB
:1008DB00120984A2A1E433FDC2A07F05120988AFDF
:0108EB000507
:0108EC0022E9
:1009D000C2A0EF24FF92A17F05120988120984C2E8
:0809E000A0D2A17F05020988E5
:0208A400AB07A0
:1008A600120A657F901208D0120A657F9112082AF3
:1008B6001208DB12092DAD077F011209D0120A7446
:0208C600AF057C
:0108C800220D
:10094A00AB07120A657F9012082A1208DB7F411250
:0D095A00082A1208DBAF0312082A0208DB8E
:10063D008B358A3689371208C9AF391539EF601FE6
:10064D00AB350537E537AA367002053614F91201B8
:10065D00EBFF12082A1208DB7FC812098880DA1214
:10066D000A747FFF1209887FFF1209887FFF120924
:06067D00887FFF020988DE
:100683008B3A8A3B893C1208C9120A657FA112087A
:100693002A1208DBAF3E153EEF602412092DAB3A58
:1006A300053CE53CAA3B7002053B14F9EF1202310D
:1006B300E53E6004E4FF80027F011209D080D50289
:0206C3000A74B7
:060A800000007F09DFFE0B
:010A8600224D
:04099E007F057E0053
:1009A200EF1FAA0670011E4A600BE4FDEDC3940C12
:0509B20050EE0D80F77E
:0109B700221D
:02090F00A90736
:10091100E4FBC294E913929412099ED294E9C313A1
:0C092100F90BBB08ED7F057E000209A267
:10096700E4FBC294ECC313FCD294120A80309403C4
:0C09770043048012099E0BBB08E8AF048B
:010983002251
:10087D00C203D2947F0C7E001209A2C2947F507ED7
:10088D00001209A2D2947F0A7E001209A2A29492AC
:06089D000312099EA203F4
:0108A3002232
:1006C50012087D7FCC12090F7F4412090F7FC87E67
:1006D500001209A212087D7FCC12090F7FBE1209F4
:1006E5000F120967A907120967EFAD01FCE41201B2
:0B06F50031E4FBFA7980783D1200260A
:0107000022D6
:060A870000007F26DFFEE7
:010A8D002246
:100A1600C2AFE4FED290120A87C290120A870EBEB7
:040A260008F2D2AF51
:010A2A0022A9
:10073A00E4F5D9F5E9F5F9120A16D2DE309103305B
:10074A00DFFAC2DE20DF1CAFF9EFFEADE9EDFFAC48
:10075A0006E41201317B967A43798B783C120026A3
:07076A0002016AC2DF7F00FB
:010771002265
:10002600EC4D6011E8497017ED33EC3304600DE4D4
:10003600FCFFFEFD22E933E8330470F80201D61214
:1000460001A158046009E4CC248150062850090215
:1000560001E02840030201DDC0E0EB4A7044B980AC
:1000660006D0E0FB0201CCEF4E701CBD8008EBFF12
:10007600EAFEE9FD80EBE98DF0A4FEE5F002010F52
:10008600E9CDF9EAFEEBFFEF89F0A4FCE5F0CE89B5
:10009600F0A42EFFE435F0CD89F0A42DFEE435F072
:1000A6008067EF4E7005BD80D780C3EF8BF0A4ACA0
:1000B600F0EE8BF0A42CFCE435F0F8EF8AF0A42CDB
:1000C600E5F038FCE433CB8DF0A42CFCE5F03BF8EE
:1000D600EE8AF0A42CFCE5F038F8E433CF89F0A4DE
:1000E6002CFCE5F038CF3400CE89F0A42FFFE5F0E4
:1000F6003EFEE433C98DF0A42EFEE5F039CD8AF03C
:10010600A42FFFE5F03EFEE43DFD33D0E0FB5007B3
:100116000BBB000F0201E0EC2CFCEF33FFEE33FECD
:06012600ED33FD0201B8FB
:10012C0075F020800E75F010800575F0087D007E4E
:10013C00007F003392D530D503120265EC334010AA
:10014C00EF33FFEE33FEED33FDEC33FCD5F0ED2257
:0E015C00E5F0247EA2D513CC92E7CDCEFF2293
:10016A00EDD2E7CD33EC3392D524814006E4FFFE8D
:10017A00FDFC22FCE4CFCECDCC24E0501174FF80EC
:10018A00EDC3CC13CCCD13CDCE13CECF13CF047089
:07019A00F030D5DE02026522
:1001A100E9D2E7C933E833F892D5EDD2E7CD33ECA4
:0701B10033FC5002B2D5221D
:1001B800EC30E7100FBF000C0EBE00080DBD0004A8
:1001C8000BEB6014A2D5EB13FCED92E7FD2274FF54
:1001D800FCFDFEFF22E480F8A2D574FF13FC7D80AD
:0301E800E480EFC1
:0300000002029F5A
:0C029F00787FE4F6D8FD7581590202E674
:1001EB00BB010689828A83E0225002E722BBFE0212
:0901FB00E32289828A83E4932245
:10020400BB010CE58229F582E5833AF583E02250AF
:1002140006E92582F8E622BBFE06E92582F8E222F9
:0D022400E58229F582E5833AF583E4932213
:10023100BB010689828A83F0225002F722BBFE01AC
:02024100F322A6
:10024300F8BB010DE58229F582E5833AF583E8F0F1
:10025300225006E92582C8F622BBFE05E92582C89D
:02026300F22285
:0E026500C3E49FFFE49EFEE49DFDE49CFC22AA
:10027300EF4E6012EF60010EEDBB010B89828A83A2
:10028300F0A3DFFCDEFA2289F05007F709DFFCA9AF
:0C029300F022BBFEFCF309DFFCA9F02206
:1002AB000209E8E493A3F8E493A34003F68001F278
:1002BB0008DFF48029E493A3F85407240CC8C33354
:1002CB00C4540F4420C8834004F456800146F6DF23
:1002DB00E4800B0102040810204080900701E47EAB
:1002EB00019360BCA3FF543F30E509541FFEE49318
:1002FB00A360010ECF54C025E060A840B8E493A3DF
:10030B00FAE493A3F8E493A3C8C582C8CAC583CA09
:10031B00F0A3C8C582C8CAC583CADFE9DEE780BEC1
:0107390000BF
:00000001FF
