:10026700060E0A0A0A0A0A0A011F1E010800030BE2
:060277000F1E3C011E01F8
:1001BD00E51B705F751B0112014B8F16E51665155A
:1001CD00FF5516F514E516F45FF51C851615E514A7
:1001DD0024FE601214601C14602A24037035E50897
:1001ED007031751D0122E5087029740B251EF8E686
:1001FD00F51F22E508B40108740B251EF8E6F51F5E
:10020D0063080122E508B4010A051EE51EB40303C7
:04021D00E4F51E22C4
:10022100E51A7041751A01E50804F50EE50870112B
:10023100E51F75F00A8475F00A8485F012E51F80C8
:100241001620001B740B251EF8E6FF75F00A847555
:10025100F00A8485F012EF75F00A8485F013227597
:06026100120A75130A22C7
:0F02C600E51F7005F590C2A3227590FFD2A32209
:1002B1005389F0438901758A18758CFCC28DD28CE3
:0502C100D2A9D2AF221A
:03000B0002000EE2
:10000E00C0E0C0F0C083C082C0D075D000C000C0B8
:10001E0001C002C003C004C005C006C007758A181F
:10002E00758CFC051BE51BB40A03751B00051AAF86
:10003E001A7E00BE0106BFF403751A000517E517F8
:10004E00B40603751700740E2517F8E6FD7C00AF95
:10005E0017120293E51DB40121050AE50A70020587
:10006E0009FFAE09BE0313BFE810750900750A003B
:10007E00151FE51FB4FF03751F000519E519700262
:10008E000518D394F4E5189401400B7518007519F2
:10009E0000A200B39200D007D006D005D004D00342
:1000AE00D002D001D000D0D0D082D083D0F0D0E01A
:0100BE00320F
:0E02D5001202B11201BD1202211202C680F502
:10014B00E4FFC2B0D2B1D2B2D2B320B4010F20B50A
:10015B00027F0220B6027F0320B7027F04D2B0C217
:10016B00B1D2B2D2B320B4027F0520B5027F0620F4
:10017B00B6027F0720B7027F08D2B0D2B1C2B2D28B
:10018B00B320B4027F0920B5027F0A20B6027F0B91
:10019B0020B7027F0CD2B0D2B1D2B2C2B320B4021C
:1001AB007F0D20B5027F0E20B6027F0F20B7027F96
:0101BB001033
:0101BC002220
:10027D00062CFEFDFBF7EFDF0B213F065B4F666D96
:05028D007D077F6F00FA
:10029300E4F580D2A6C2A674212DF8E6F580D2A695
:0E02A300C2A6742C2FF8E6F580D2A7C2A722BF
:030000000200BF3C
:0C00BF00787FE4F6D8FD7581310201065F
:1000CB000202D5E493A3F8E493A34003F68001F274
:1000DB0008DFF48029E493A3F85407240CC8C33336
:1000EB00C4540F4420C8834004F456800146F6DF05
:1000FB00E4800B0102040810204080900267E47E2C
:10010B00019360BCA3FF543F30E509541FFEE493F9
:10011B00A360010ECF54C025E060A840B8E493A3C0
:10012B00FAE493A3F8E493A3C8C582C8CAC583CAEB
:10013B00F0A3C8C582C8CAC583CADFE9DEE780BEA3
:01029200006B
:00000001FF
