:1004CA0008290A0A0A0A0A0A0A0A08210000000078
:1004DA0000000000083D0000000000000000033496
:0304EA002359553E
:10070200E5394538701D7538007539011204128FAC
:100712003AE53A6537FF553AF533E53AF45FF53C89
:04072200853A3722BB
:0D08AB00E5324531700675310075320122CD
:01000A0022D3
:03000B0002038766
:10038700C0E0C0F0C083C082C0D075D000C000C03C
:1003970001C002C003C004C005C006C0070539E597
:1003A7003970020538640A45387004F538F539059F
:1003B70032E53270020531646445317004F531F578
:1003C70032053BE53BB40803753B007429253BF830
:1003D700E6FD7C007421253BF8E6FB7A00AF3B1273
:1003E7000485743D253BF8E6FD7C00AF3B12054EC6
:1003F700D007D006D005D004D003D002D001D0005A
:0B040700D0D0D082D083D0F0D0E03203
:10082900538E7F5389F0758A18758CFCC28DD28CD2
:05083900D2A9D2AF229C
:10087A001207A61208291208AB12070212000A80F0
:01088A00F578
:0407C300D2A07F053C
:1007C700000000000000000000000000000000AE74
:0607D700071FEE70EB228B
:0F089C00D2A11207C3C2A17F051207C7C2A022B3
:0C08B800C2A11207C3D2A17F050207C72E
:02068A00AD07BA
:10068C00E4FCC2A07F051207C7ED30E704D2A180BD
:10069C0002C2A17F051207C7D2A0ED25E0FD7F05A0
:0906AC001207C70CBC08DBC2A058
:0106B5002222
:10078900E4FC1207C3ED25E0FD30A103430501C2D6
:0C079900A07F051207C70CBC08E8AF05E4
:0107A5002231
:10072600AB0512089C7FA012068A120738AF031287
:02073600068A31
:100738001207C3A2A1E433FDC2A07F051207C7AF09
:0107480005AB
:01074900228D
:10081100C2A0EF24FF92A17F051207C71207C3C22E
:08082100A0D2A17F050207C768
:0206DD00AB0769
:1006DF0012089C7F9012072D12089C7F9112068A98
:1006EF00120738120789AD077F011208111208B8D7
:0206FF00AF0545
:0107010022D5
:10083E00AB0712089C7F9012068A1207387F41126E
:05084E00072D0208B8AF
:10050C008B458A46894712072612089C7FA1120642
:10051C008A120738AF491549EF6024120789AB4599
:10052C000547E547AA467002054614F9EF1202B9D1
:10053C00E5496004E4FF80027F0112081180D502B6
:02054C0008B8ED
:100629008B4A8A4B894C120726AF4E154EEF601F35
:10063900AB4A054CE54CAA4B7002054B14F9120262
:1006490073FF12068A1207387FC81207C780DA02B9
:0206590008B8DF
:10086700E4FEC297EF1392A3EFC313FFD2970EBE16
:0208770008F087
:01087900225C
:10085300C29300C29700D29300120867AF05120833
:0408630067C29322B3
:1005F500E4FDC29300C29700D29300120867E4FF9E
:10060500C297EDC313FD30A303430580D2970FBFF7
:1006150008EEC29300C29700D29700C2A300D2A3EE
:0306250000AF051E
:0106280022AF
:10065B00E4FD7F8E120853120273FD7F8412085340
:10066B0090000112028CFD7F82120853900002123F
:0F067B00028CFD7F801208537D807F8E02085312
:10074A007F851205F5EF1202B97F831205F5900035
:10075A0001EF1202CB7F811205F5900002EF02022F
:01076A00CBC3
:1007A6007580FFE5A0541F4480F5A053A01FE4F513
:0D07B60080E5A0541F44A0F5A053A01F2211
:10041200E4FFC2C4D2C2D2B5D2B420B3027F042058
:10042200B2027F0520B1027F0620B0027F07D2C44C
:10043200C2C2D2B5D2B420B3027F0820B2027F0971
:1004420020B1027F0A20B0027F0BD2C4D2C2C2B551
:10045200D2B420B3027F0C20B2027F0D20B1027F02
:100462000E20B0027F0FD2C4D2C2D2B5C2B420B322
:10047200027F1020B2027F1120B1027F1220B0024F
:020482007F13E6
:010484002255
:0604ED00011C00011DFFCF
:10054E00ED4C600F7401A807088002C333D8FC423B
:10055E001C800E7401A807088002C333D8FCF45225
:10056E001CE51C651D6013E51CF4F580E5A0541F09
:0A057E004480F5A053A01F851C1D4A
:010588002250
:0407DD007F057E0016
:1007E100EF1FAA0670011E4A600BE4FDEDC3940CD5
:0507F10050EE0D80F741
:0107F60022E0
:02076B00A907DC
:10076D00E4FBC294E91392941207DDD294E9C3130A
:0C077D00F90BBB08ED7F057E000207E1D0
:1007F700E4FBC294ECC313FCD2943094034304800B
:090807001207DD0BBB08EBAF0486
:0108100022C5
:1006B600C200D2947F0C7E001207E1C2947F507E66
:1006C600001207E1D2947F0A7E001207E1A29492FB
:0606D600001207DDA20086
:0106DC0022FB
:1005C0001206B67FCC12076B7F4412076B1206B679
:1005D0007FCC12076B7FBE12076B1207F7A90712B9
:1005E00007F7EFAD01FCE41201B9E4FBFA7980787A
:0405F000411201179C
:0105F40022E4
:1004F3000C08C0F9A4B0999282F88090FFBF081449
:080503000102040810204080F1
:100485007580FFE5A0541F44E0F5A053A01F741428
:100495002FF8E6F580E5A0541F44C0F5A053A01F32
:1004A50074082DF8E6F580E5A0541F44E0F5A05347
:1004B500A01FEB4A600353807FE5A0541F44E0F57D
:0504C500A053A01F225E
:0600030000007F21DFFE7A
:0100090022D4
:10088B00E4FED290120003C2901200030EBE08F2D7
:01089B00223A
:1005890053890FE4F58BF58DD28E309103308FFAB4
:10059900C28E208F1CAF8DEFFEAD8BEDFFAC06E454
:1005A9001201B97B967A43798B783C12000E0201CD
:0605B900F2C28FE4FEFF18
:0105BF002219
:10000E00EC4D6011E8497017ED33EC3304600DE4EC
:10001E00FCFFFEFD22E933E8330470F802025E12A3
:10002E00022958046009E4CC2481500628500902A4
:10003E000268284003020265C0E0EB4A7044B980B2
:10004E0006D0E0FB020254EF4E701CBD8008EBFFA1
:10005E00EAFEE9FD80EBE98DF0A4FEE5F00200F783
:10006E00E9CDF9EAFEEBFFEF89F0A4FCE5F0CE89CD
:10007E00F0A42EFFE435F0CD89F0A42DFEE435F08A
:10008E008067EF4E7005BD80D780C3EF8BF0A4ACB8
:10009E00F0EE8BF0A42CFCE435F0F8EF8AF0A42CF3
:1000AE00E5F038FCE433CB8DF0A42CFCE5F03BF806
:1000BE00EE8AF0A42CFCE5F038F8E433CF89F0A4F6
:1000CE002CFCE5F038CF3400CE89F0A42FFFE5F0FC
:1000DE003EFEE433C98DF0A42EFEE5F039CD8AF054
:1000EE00A42FFFE5F03EFEE43DFD33D0E0FB5007CC
:1000FE000BBB000F020268EC2CFCEF33FFEE33FE5D
:06010E00ED33FD0202408A
:10011400020268EC5D046005E85904700302025EA3
:10012400120229580460F6EC4860F2EC7004FDFEFB
:10013400FF22C860DB2481C85009C39860025006BE
:100144000202659850CAF582E9294B4A7005AB82D0
:1001540002025475F0007C1A7880C3EF9BEE9AED8E
:1001640099400DC3EF9BFFEE9AFEED99FDE842F036
:10017400DC23ACF0D0E0FFD0E0FED0E0FDAB822089
:10018400E7101BEB60BAEC2CFCEF33FFEE33FEED13
:1001940033FD020240E803F830E705C0F075F000D3
:1001A400EF2FFFEE33FEED33FD40B830E7C280AAF7
:1001B40075F020800E75F010800575F0087D007EC6
:1001C400007F003392D530D5031202EDEC3340109A
:1001D400EF33FFEE33FEED33FDEC33FCD5F0ED22CF
:0E01E400E5F0247EA2D513CC92E7CDCEFF220B
:1001F200EDD2E7CD33EC3392D524814006E4FFFE05
:10020200FDFC22FCE4CFCECDCC24E0501174FF8063
:10021200EDC3CC13CCCD13CDCE13CECF13CF047000
:07022200F030D5DE0202ED11
:10022900E9D2E7C933E833F892D5EDD2E7CD33EC1B
:0702390033FC5002B2D52294
:10024000EC30E7100FBF000C0EBE00080DBD00041F
:100250000BEB6014A2D5EB13FCED92E7FD2274FFCB
:10026000FCFDFEFF22E480F8A2D574FF13FC7D8024
:03027000E480EF38
:030000000202FBFE
:0C02FB00787FE4F6D8FD75814E020342C6
:10027300BB010689828A83E0225002E722BBFE0289
:09028300E32289828A83E49322BC
:10028C00BB010CE58229F582E5833AF583E0225027
:10029C0006E92582F8E622BBFE06E92582F8E22271
:0D02AC00E58229F582E5833AF583E493228B
:1002B900BB010689828A83F0225002F722BBFE0124
:0202C900F3221E
:1002CB00F8BB010DE58229F582E5833AF583E8F069
:1002DB00225006E92582C8F622BBFE05E92582C815
:0202EB00F222FD
:0E02ED00C3E49FFFE49EFEE49DFDE49CFC2222
:1003070002087AE493A3F8E493A34003F68001F28A
:1003170008DFF48029E493A3F85407240CC8C333F7
:10032700C4540F4420C8834004F456800146F6DFC6
:10033700E4800B01020408102040809004CAE47E88
:10034700019360BCA3FF543F30E509541FFEE493BB
:10035700A360010ECF54C025E060A840B8E493A382
:10036700FAE493A3F8E493A3C8C582C8CAC583CAAD
:10037700F0A3C8C582C8CAC583CADFE9DEE780BE65
:01050B0000EF
:00000001FF
