:0407E100D2A07F0A19
:1007E500000000000000000000000000000000AE56
:0607F500071FEE70EB226D
:0F086500D2A11207E1C2A17F0A1207E5C2A022A9
:0C087400C2A11207E1D2A17F0A0207E531
:02075000AD07F3
:10075200E4FCC2A07F0A1207E5ED30E704D2A180D3
:1007620002C2A17F0A1207E5D2A0ED25E0FD7F0AB1
:090772001207E50CBC08DBC2A073
:01077B00225B
:1007A800E4FC1207E1ED25E0FD30A103430501C299
:0C07B800A07F0A1207E50CBC08E8AF05A2
:0107C4002212
:0308130012075079
:100816001207E1A2A1E433FDC2A07F0A1207E5AFE9
:0108260005CC
:0108270022AE
:1007FB00C2A0EF24FF92A17F0A1207E51207E1C204
:08080B00A0D2A17F0A0207E55B
:02077C00AB07C9
:10077E00E4FD1208657F90120813AF0312081312DE
:10078E0008657F911207501208161207A8AD077F51
:09079E00011207FB120874AF05FB
:0107A700222F
:10059200E4FFC2C4D2C2D2B5D2B420B0027F0720D7
:1005A200B1027F0620B2027F0520B3027F04D2C4CB
:1005B200C2C2D2B5D2B420B0027F0B20B1027F0AF0
:1005C20020B2027F0920B3027F08D2C4D2C2C2B5D0
:1005D200D2B420B0027F0F20B1027F0E20B2027F80
:1005E2000D20B3027F0CD2C4D2C2D2B5C2B420B0A5
:1005F200027F1320B1027F1220B2027F1120B302C8
:020602007F1067
:0106040022D3
:06060500014D00014EFF53
:1006DD00ED4C600F7401A807088002C333D8FC42AB
:1006ED004D800E7401A807088002C333D8FCF45264
:1006FD004DE54D654E6013E54DF4F580E5A0541FB5
:0A070D004480F5A053A01F854D4E57
:0107170022BF
:10060B000F08C0F9A4B0999282F88090FF888C866D
:0B061B00BF08170102040810204080F7
:10069A007580FFE5A0541F44E0F5A0E5A0541FF5BE
:1006AA00A074172FF8E6F580E5A0541F44C0F5A002
:1006BA00E5A0541FF5A074082DF8E6F580EB4A6012
:1006CA000353807FE5A0541F44E0F5A0E5A0541F22
:0206DA00F5A089
:0106DC0022FB
:0600030000007F21DFFE7A
:0100090022D4
:10082800C2AFE4FED290120003C2901200030EBEC3
:0408380008F2D2AF41
:01083C002299
:10071800E4F5D9F5E9F5F9120828D2DE309103306D
:10072800DFFAC2DE20DF1CAFF9EFFEADE9EDFFAC6A
:1007380006E41201197B967A43798B783C12000EF5
:07074800020152C2DF7F0035
:01074F002287
:1006260008290A0A0A0A0A0A0A0A0821000000001A
:100636000000000008450000000000000000013630
:0B06460000C1000233003C0231000A3A
:10085200E4FF74292FF8760A74212FF8E4F60FBF0B
:0208620008F09C
:010864002271
:10024800E53FC3940A500302037BE4F53F12071805
:100258007539008F3A7F0312077C7540008F411271
:1002680005928F38E5376538FF5538F535E538F4A8
:100278005FF542853837E54464017039FBEB75F06A
:1002880033A4C39541E5F095405026EB2401FFE4E3
:1002980033FE7C007D331201D3C3E5419FE5409EC8
:1002A800500FEB75F00AA4AEF02432F534E43EF5B5
:1002B800330BBB05C8E54464027034FBEB75F033BF
:1002C800A4C39541E5F095405021EB2401FFE433A8
:1002D800FE7C007D331201D3C3E5419FE5409E506B
:1002E8000AEB75F00AA485F031F5320BBB05CDE5B4
:1002F8003524FB601A24FD605014602124057073B6
:100308000536E536D394024003E4F536020852A2D6
:1003180000B39200E53664027059F53C22E5366474
:1003280001705020001FF544740A2534F534E43573
:1003380033F533D3E534945AE533940040357533B7
:10034800007534322275440122E536B401252000B7
:100358001FE4F544740A2532F532E43531F531D31A
:10036800E5329428E53194004009E4F531F532226C
:03037800754402C7
:01037B00225F
:10037C00C3E53E9490E53D94015003020481E4F5FD
:10038C003DF53EC3E53A9532E5399531400DD3E55F
:10039C003A9534E53995335002D201D3E53A953488
:1003AC00E5399533500BC3E53A9532E53995315023
:1003BC0007300104053CC201E53614605E1470037D
:1003CC000204702402600302048175290BD3E53A00
:1003DC009463E53994004016AE39AF3A7C007D64E5
:1003EC001201E57C007D0A1201E58D2E8003752E2D
:1003FC000AD3E53A9409E53994004016AE39AF3A80
:10040C007C007D0A1201E57C007D0A1201E58D2F2E
:10041C008003752F0AAE39AF3A803F75290C300036
:10042C0005752A028003752A01752B0AAE31AF328D
:10043C007C007D0A1201E58F2CAE31AF327C007D41
:10044C000A1201E58D2D752E0EAE33AF347C007D76
:10045C000A1201E58F2FAE33AF347C007D0A1201F6
:10046C00E58D302275290DE53CD394094004753097
:06047C000E22853C302237
:10065200E53670047F0180027F008F45E536B401E4
:10066200047F0180027F008F46E536B402047F01D9
:1006720080027F008F47D3E532953AE531953950B4
:100682000FC3E534953AE533953940047F0180057F
:08069200A202E433FF8F4C22A9
:03000B0002050EDD
:10050E00C0E0C0F0C083C082C0D075D000C000C0B3
:10051E0001C002C003C004C005C006C007053F05E8
:10052E003EE53E7002053D053BE53BD39408400396
:10053E00753B00AF3B7E007429253BF8E6FD7C0041
:10054E007421253BF8E6FB7A0012069A7445253B8A
:10055E00F8E6FD7C00AF3B1206DD0543E543B464CF
:10056E0008754300A202B39202D007D006D005D080
:10057E0004D003D002D001D000D0D0D082D083D00E
:04058E00F0D0E03297
:10083D00538E7F5389F0758A18758CFCC28DD28CBE
:05084D00D2A9D2AF2288
:1007C5007580FFE5A0541F4480F5A053A01F1208B3
:0C07D5003D12065212024812037C80F50F
:10000E00EC4D6011E8497017ED33EC3304600DE4EC
:10001E00FCFFFEFD22E933E8330470F80201BE1244
:10002E00018958046009E4CC248150062850090245
:10003E0001C82840030201C5C0E0EB4A7044B980F4
:10004E0006D0E0FB0201B4EF4E701CBD8008EBFF42
:10005E00EAFEE9FD80EBE98DF0A4FEE5F00200F783
:10006E00E9CDF9EAFEEBFFEF89F0A4FCE5F0CE89CD
:10007E00F0A42EFFE435F0CD89F0A42DFEE435F08A
:10008E008067EF4E7005BD80D780C3EF8BF0A4ACB8
:10009E00F0EE8BF0A42CFCE435F0F8EF8AF0A42CF3
:1000AE00E5F038FCE433CB8DF0A42CFCE5F03BF806
:1000BE00EE8AF0A42CFCE5F038F8E433CF89F0A4F6
:1000CE002CFCE5F038CF3400CE89F0A42FFFE5F0FC
:1000DE003EFEE433C98DF0A42EFEE5F039CD8AF054
:1000EE00A42FFFE5F03EFEE43DFD33D0E0FB5007CC
:1000FE000BBB000F0201C8EC2CFCEF33FFEE33FEFE
:06010E00ED33FD0201A02B
:1001140075F020800E75F010800575F0087D007E66
:10012400007F003392D530D50312023AEC334010ED
:10013400EF33FFEE33FEED33FDEC33FCD5F0ED226F
:0E014400E5F0247EA2D513CC92E7CDCEFF22AB
:10015200EDD2E7CD33EC3392D524814006E4FFFEA5
:10016200FDFC22FCE4CFCECDCC24E0501174FF8004
:10017200EDC3CC13CCCD13CDCE13CECF13CF0470A1
:07018200F030D5DE02023A65
:10018900E9D2E7C933E833F892D5EDD2E7CD33ECBC
:0701990033FC5002B2D52235
:1001A000EC30E7100FBF000C0EBE00080DBD0004C0
:1001B0000BEB6014A2D5EB13FCED92E7FD2274FF6C
:1001C000FCFDFEFF22E480F8A2D574FF13FC7D80C5
:0301D000E480EFD9
:0300000002048275
:0C048200787FE4F6D8FD75814E0204C9B5
:1001D300EF8DF0A4A8F0CF8CF0A428CE8DF0A42E40
:0201E300FE22FA
:1001E500BC000BBE0029EF8DF084FFADF022E4CCFE
:1001F500F875F008EF2FFFEE33FEEC33FCEE9DECC7
:10020500984005FCEE9DFE0FD5F0E9E4CEFD22ED0C
:10021500F8F5F0EE8420D21CFEADF075F008EF2F56
:10022500FFED33FD4007985006D5F0F222C398FD47
:050235000FD5F0EA22E4
:0E023A00C3E49FFFE49EFEE49DFDE49CFC22D5
:10048E000207C5E493A3F8E493A34003F68001F2B8
:10049E0008DFF48029E493A3F85407240CC8C3336F
:1004AE00C4540F4420C8834004F456800146F6DF3E
:1004BE00E4800B0102040810204080900605E47EC3
:1004CE00019360BCA3FF543F30E509541FFEE49333
:1004DE00A360010ECF54C025E060A840B8E493A3FA
:1004EE00FAE493A3F8E493A3C8C582C8CAC583CA25
:1004FE00F0A3C8C582C8CAC583CADFE9DEE780BEDD
:0106510000A8
:00000001FF
