:10064200082D0A0A0A0A0A0A0A0A082300000000F8
:100652000000000008470001000100010001024102
:0E0662001E14023D1E14022B00000221000097
:1002D600E54660030203B87546011205CF8F37E580
:1002E600376536FF5537F535E537F45FF54F853712
:1002F60036E550B40102D201C3E52C94F4E52B9403
:1003060001503DE54FB40E18E4F52BF52CC201AFB4
:100316004074412FF806E6B4470674412FF8760A72
:10032600E54F640F7070F52BF52CC201AF40744198
:100336002FF816E66409705E74412FF876468056EB
:100346000522E52270020521641945217048F52130
:10035600F522E536B40E11AF4074412FF806E6B427
:10036600470674412FF8760AE54FB40E07E4F52BDD
:10037600F52CC201E536B40F11AF4074412FF816C3
:10038600E6B4090674412FF87646E54FB40F07E444
:10039600F52BF52CC201E53524F3600E0470130528
:1003A60050E550B4020CE4F55022E550B401036365
:0203B600400104
:0103B8002222
:1003B900E543600302048D75430112070E8F3B8EDE
:1003C9003A8D398C38E55014605004600302048D6D
:1003D900752D0B75300AAF3BAE3AAD39AC38120109
:1003E900F2EF75F00A8475F00A8485F031EF75F043
:1003F9000A8485F032E4FFFE7D207C41AB3BAA3ABA
:10040900A939A83812000E1201F27C007D0A1202E5
:10041900738D3375340B75280122752D0CE54175E3
:10042900F00A8475F00A84AFF08F30E54175F00A5F
:1004390084AEF08E3175320DE54275F00A8475F09F
:100449000A84ADF08D33E54275F00A84A9F0893448
:10045900E4F528E540453F701530000280027F0A27
:100469008F30300004AF0680027F0A8F31223000BE
:1004790004AF0580027F0A8F33300004AF01800288
:050489007F0A8F342200
:0100030022DA
:1007D900538E7F5389F0758A18758CFCC28DD28C23
:0507E900D2A9D2AF22ED
:03000B0002048E5E
:10048E00C0E0C0F0C083C082C0D075D000C000C034
:10049E0001C002C003C004C005C006C0070546E582
:1004AE0046B40A037546000543AF437E00BE0106FF
:1004BE00BFF403754300053CE53CB40803753C00EE
:1004CE00742D253CF8E6FD7C007423253CF8E6FBF4
:1004DE007A00AF3C1206917447253CF8E6FD7C008D
:1004EE00AF3C1206D30545E54570020544FFAE4408
:1004FE00BE010EBFF40B754400754500A200B39209
:10050E0000300116052CE52C7002052BB4580BE5B6
:10051E002BB40206752B02752C57D007D006D005CA
:10052E00D004D003D002D001D000D0D0D082D0835E
:05053E00D0F0D0E03216
:1007EE001207881207D91202D61203B9120003801B
:0107FE00F505
:100788007580FFE5A0541F4480F5A053A01FE4F531
:0D07980080E5A0541F44A0F5A053A01F222F
:1005CF00E4FFC2C4D2C2D2B5D2B420B0027F07209A
:1005DF00B1027F0620B2027F0520B3027F04D2C48E
:1005EF00C2C2D2B5D2B420B0027F0B20B1027F0AB3
:1005FF0020B2027F0920B3027F08D2C4D2C2C2B593
:10060F00D2B420B0027F0F20B1027F0E20B2027F42
:10061F000D20B3027F0CD2C4D2C2D2B5C2B420B067
:10062F00027F1320B1027F1220B2027F1120B3028A
:02063F007F102A
:010641002296
:10067000081601020408102040800E08C0F9A4B03A
:0A068000999282F88090FFC68CBFAB
:100691007580FFE5A0541F44E0F5A053A01F741618
:1006A1002FF8E6F580E5A0541F44C0F5A053A01F24
:1006B100EB4A600B74082DF8E6547FF580800774CF
:1006C100082DF8E6F580E5A0541F44E0F5A053A0FD
:0206D1001F22E6
:06068A00011E00011FFF2C
:1006D300ED4C600F7401A807088002C333D8FC42B5
:1006E3001E800E7401A807088002C333D8FCF4529D
:1006F3001EE51E651F6013E51EF4F580E5A0541F7B
:0A0703004480F5A053A01F851E1FBF
:01070D0022C9
:0407A5007F057E004E
:1007A900EF1FAA0670011E4A600BE4FDEDC3940C0D
:0507B90050EE0D80F779
:0107BE002218
:02076A00A907DD
:10076C00E4FBC294E91392941207A5D294E9C31343
:0C077C00F90BBB08ED7F057E000207A909
:1007BF00E4FBC294ECC313FCD29430940343048043
:0907CF001207A50BBB08EBAF04F7
:0107D80022FE
:10074300C202D2947F0C7E001207A9C2947F507E0E
:10075300001207A9D2947F0A7E001207A9A29492DD
:06076300021207A5A2022C
:01076900226D
:10070E001207437FCC12076A7F4412076A1207430F
:10071E007FCC12076A7FBE12076A1207BFA90712A3
:10072E0007BFEFAD01FCE41201B9E4FBFA79807862
:04073E00411201174C
:010742002294
:10000E00EC4D6011E8497017ED33EC3304600DE4EC
:10001E00FCFFFEFD22E933E8330470F802025E12A3
:10002E00022958046009E4CC2481500628500902A4
:10003E000268284003020265C0E0EB4A7044B980B2
:10004E0006D0E0FB020254EF4E701CBD8008EBFFA1
:10005E00EAFEE9FD80EBE98DF0A4FEE5F00200F783
:10006E00E9CDF9EAFEEBFFEF89F0A4FCE5F0CE89CD
:10007E00F0A42EFFE435F0CD89F0A42DFEE435F08A
:10008E008067EF4E7005BD80D780C3EF8BF0A4ACB8
:10009E00F0EE8BF0A42CFCE435F0F8EF8AF0A42CF3
:1000AE00E5F038FCE433CB8DF0A42CFCE5F03BF806
:1000BE00EE8AF0A42CFCE5F038F8E433CF89F0A4F6
:1000CE002CFCE5F038CF3400CE89F0A42FFFE5F0FC
:1000DE003EFEE433C98DF0A42EFEE5F039CD8AF054
:1000EE00A42FFFE5F03EFEE43DFD33D0E0FB5007CC
:1000FE000BBB000F020268EC2CFCEF33FFEE33FE5D
:06010E00ED33FD0202408A
:10011400020268EC5D046005E85904700302025EA3
:10012400120229580460F6EC4860F2EC7004FDFEFB
:10013400FF22C860DB2481C85009C39860025006BE
:100144000202659850CAF582E9294B4A7005AB82D0
:1001540002025475F0007C1A7880C3EF9BEE9AED8E
:1001640099400DC3EF9BFFEE9AFEED99FDE842F036
:10017400DC23ACF0D0E0FFD0E0FED0E0FDAB822089
:10018400E7101BEB60BAEC2CFCEF33FFEE33FEED13
:1001940033FD020240E803F830E705C0F075F000D3
:1001A400EF2FFFEE33FEED33FD40B830E7C280AAF7
:1001B40075F020800E75F010800575F0087D007EC6
:1001C400007F003392D530D5031202C8EC334010BF
:1001D400EF33FFEE33FEED33FDEC33FCD5F0ED22CF
:0E01E400E5F0247EA2D513CC92E7CDCEFF220B
:1001F200EDD2E7CD33EC3392D524814006E4FFFE05
:10020200FDFC22FCE4CFCECDCC24E0501174FF8063
:10021200EDC3CC13CCCD13CDCE13CECF13CF047000
:07022200F030D5DE0202C836
:10022900E9D2E7C933E833F892D5EDD2E7CD33EC1B
:0702390033FC5002B2D52294
:10024000EC30E7100FBF000C0EBE00080DBD00041F
:100250000BEB6014A2D5EB13FCED92E7FD2274FFCB
:10026000FCFDFEFF22E480F8A2D574FF13FC7D8024
:03027000E480EF38
:03000000020543B3
:0C054300787FE4F6D8FD75815002058A2F
:10027300BC000BBE0029EF8DF084FFADF022E4CC6F
:10028300F875F008EF2FFFEE33FEEC33FCEE9DEC38
:10029300984005FCEE9DFE0FD5F0E9E4CEFD22ED7E
:1002A300F8F5F0EE8420D21CFEADF075F008EF2FC8
:1002B300FFED33FD4007985006D5F0F222C398FDB9
:0502C3000FD5F0EA2256
:0E02C800C3E49FFFE49EFEE49DFDE49CFC2247
:10054F000207EEE493A3F8E493A34003F68001F2CD
:10055F0008DFF48029E493A3F85407240CC8C333AD
:10056F00C4540F4420C8834004F456800146F6DF7C
:10057F00E4800B0102040810204080900642E47EC4
:10058F00019360BCA3FF543F30E509541FFEE49371
:10059F00A360010ECF54C025E060A840B8E493A338
:1005AF00FAE493A3F8E493A3C8C582C8CAC583CA63
:1005BF00F0A3C8C582C8CAC583CADFE9DEE780BE1B
:010690000069
:00000001FF
